{
  "contractName": "Library2",
  "abi": [
    {
      "inputs": [],
      "stateMutability": "nonpayable",
      "type": "constructor"
    },
    {
      "inputs": [
        {
          "internalType": "uint8[]",
          "name": "data",
          "type": "uint8[]"
        }
      ],
      "name": "addPatches",
      "outputs": [
        {
          "internalType": "bool",
          "name": "ok",
          "type": "bool"
        }
      ],
      "stateMutability": "nonpayable",
      "type": "function"
    },
    {
      "inputs": [],
      "name": "hasAccount",
      "outputs": [
        {
          "internalType": "bool",
          "name": "has",
          "type": "bool"
        }
      ],
      "stateMutability": "view",
      "type": "function"
    },
    {
      "inputs": [
        {
          "internalType": "string",
          "name": "username",
          "type": "string"
        }
      ],
      "name": "infos",
      "outputs": [
        {
          "components": [
            {
              "internalType": "string",
              "name": "username",
              "type": "string"
            },
            {
              "internalType": "uint256",
              "name": "creationTime",
              "type": "uint256"
            },
            {
              "internalType": "string",
              "name": "country",
              "type": "string"
            },
            {
              "internalType": "string",
              "name": "language",
              "type": "string"
            }
          ],
          "internalType": "struct Library2.PublicInfo",
          "name": "info",
          "type": "tuple"
        }
      ],
      "stateMutability": "view",
      "type": "function"
    },
    {
      "inputs": [],
      "name": "loadPatches",
      "outputs": [
        {
          "internalType": "uint8[][]",
          "name": "myData",
          "type": "uint8[][]"
        }
      ],
      "stateMutability": "view",
      "type": "function"
    },
    {
      "inputs": [
        {
          "internalType": "string",
          "name": "username",
          "type": "string"
        }
      ],
      "name": "loadUsernamePatches",
      "outputs": [
        {
          "internalType": "uint8[][]",
          "name": "myData",
          "type": "uint8[][]"
        }
      ],
      "stateMutability": "view",
      "type": "function"
    },
    {
      "inputs": [],
      "name": "myInfos",
      "outputs": [
        {
          "components": [
            {
              "internalType": "string",
              "name": "username",
              "type": "string"
            },
            {
              "internalType": "uint256",
              "name": "creationTime",
              "type": "uint256"
            },
            {
              "internalType": "string",
              "name": "country",
              "type": "string"
            },
            {
              "internalType": "string",
              "name": "language",
              "type": "string"
            }
          ],
          "internalType": "struct Library2.PublicInfo",
          "name": "info",
          "type": "tuple"
        }
      ],
      "stateMutability": "view",
      "type": "function"
    },
    {
      "inputs": [],
      "name": "nbUsers",
      "outputs": [
        {
          "internalType": "uint32",
          "name": "",
          "type": "uint32"
        }
      ],
      "stateMutability": "view",
      "type": "function"
    },
    {
      "inputs": [],
      "name": "owner",
      "outputs": [
        {
          "internalType": "address",
          "name": "",
          "type": "address"
        }
      ],
      "stateMutability": "view",
      "type": "function"
    },
    {
      "inputs": [
        {
          "internalType": "string",
          "name": "username",
          "type": "string"
        },
        {
          "internalType": "string",
          "name": "country",
          "type": "string"
        },
        {
          "internalType": "string",
          "name": "language",
          "type": "string"
        },
        {
          "internalType": "uint256",
          "name": "donation",
          "type": "uint256"
        }
      ],
      "name": "register",
      "outputs": [
        {
          "internalType": "uint64",
          "name": "id",
          "type": "uint64"
        }
      ],
      "stateMutability": "nonpayable",
      "type": "function"
    },
    {
      "inputs": [
        {
          "internalType": "address",
          "name": "",
          "type": "address"
        }
      ],
      "name": "userIds",
      "outputs": [
        {
          "internalType": "uint32",
          "name": "",
          "type": "uint32"
        }
      ],
      "stateMutability": "view",
      "type": "function"
    },
    {
      "inputs": [
        {
          "internalType": "string",
          "name": "",
          "type": "string"
        }
      ],
      "name": "usernames",
      "outputs": [
        {
          "internalType": "address",
          "name": "",
          "type": "address"
        }
      ],
      "stateMutability": "view",
      "type": "function"
    }
  ],
  "bytecode": "0x608060405260008060146101000a81548163ffffffff021916908363ffffffff16021790555034801561003157600080fd5b50d3801561003e57600080fd5b50d2801561004b57600080fd5b50336000806101000a81548173ffffffffffffffffffffffffffffffffffffffff021916908373ffffffffffffffffffffffffffffffffffffffff1602179055506122d98061009b6000396000f3fe608060405234801561001057600080fd5b50d3801561001d57600080fd5b50d2801561002a57600080fd5b50600436106100c35760003560e01c8063851bdb7d1161008b578063851bdb7d146101a65780638da5cb5b146101c45780638f76a380146101e2578063aaee301f14610200578063dd5ad20814610230578063ec582cd51461024e576100c3565b806302110d25146100c857806318245304146100f85780634081db51146101285780636bb355c8146101585780637b973bd014610176575b600080fd5b6100e260048036038101906100dd91906118c4565b61027e565b6040516100ef9190611df1565b60405180910390f35b610112600480360381019061010d9190611832565b61066b565b60405161011f9190611cd9565b60405180910390f35b610142600480360381019061013d9190611805565b6107be565b60405161014f9190611dd6565b60405180910390f35b6101606107e1565b60405161016d9190611dd6565b60405180910390f35b610190600480360381019061018b919061187b565b6107f7565b60405161019d9190611db4565b60405180910390f35b6101ae610c1a565b6040516101bb9190611db4565b60405180910390f35b6101cc61103c565b6040516101d99190611c9c565b60405180910390f35b6101ea611060565b6040516101f79190611cd9565b60405180910390f35b61021a6004803603810190610215919061187b565b6110d0565b6040516102279190611c9c565b60405180910390f35b610238611119565b6040516102459190611cb7565b60405180910390f35b6102686004803603810190610263919061187b565b6112eb565b6040516102759190611cb7565b60405180910390f35b600080600160006003886040516102959190611c85565b908152602001604051809103902060009054906101000a900473ffffffffffffffffffffffffffffffffffffffff1673ffffffffffffffffffffffffffffffffffffffff1673ffffffffffffffffffffffffffffffffffffffff16815260200190815260200160002060009054906101000a900463ffffffff1663ffffffff1614610355576040517f08c379a000000000000000000000000000000000000000000000000000000000815260040161034c90611d54565b60405180910390fd5b6000600160003373ffffffffffffffffffffffffffffffffffffffff1673ffffffffffffffffffffffffffffffffffffffff16815260200190815260200160002060009054906101000a900463ffffffff1663ffffffff16146103ed576040517f08c379a00000000000000000000000000000000000000000000000000000000081526004016103e490611d14565b60405180910390fd5b6000600160003373ffffffffffffffffffffffffffffffffffffffff1673ffffffffffffffffffffffffffffffffffffffff16815260200190815260200160002060009054906101000a900463ffffffff1663ffffffff16141561060b576001600060149054906101000a900463ffffffff1661046a9190611f38565b600060146101000a81548163ffffffff021916908363ffffffff160217905550600060149054906101000a900463ffffffff16600160003373ffffffffffffffffffffffffffffffffffffffff1673ffffffffffffffffffffffffffffffffffffffff16815260200190815260200160002060006101000a81548163ffffffff021916908363ffffffff16021790555084600260008060149054906101000a900463ffffffff1663ffffffff1663ffffffff168152602001908152602001600020600001908051906020019061054192919061153b565b5042600260008060149054906101000a900463ffffffff1663ffffffff1663ffffffff1681526020019081526020016000206001018190555083600260008060149054906101000a900463ffffffff1663ffffffff1663ffffffff16815260200190815260200160002060020190805190602001906105c192919061153b565b5082600260008060149054906101000a900463ffffffff1663ffffffff1663ffffffff168152602001908152602001600020600301908051906020019061060992919061153b565b505b600160003373ffffffffffffffffffffffffffffffffffffffff1673ffffffffffffffffffffffffffffffffffffffff16815260200190815260200160002060009054906101000a900463ffffffff1663ffffffff169050949350505050565b600080600160003373ffffffffffffffffffffffffffffffffffffffff1673ffffffffffffffffffffffffffffffffffffffff16815260200190815260200160002060009054906101000a900463ffffffff1663ffffffff1611610704576040517f08c379a00000000000000000000000000000000000000000000000000000000081526004016106fb90611d94565b60405180910390fd5b6000600160003373ffffffffffffffffffffffffffffffffffffffff1673ffffffffffffffffffffffffffffffffffffffff16815260200190815260200160002060009054906101000a900463ffffffff169050600260008263ffffffff1663ffffffff168152602001908152602001600020600401839080600181540180825580915050600190039060005260206000200160009091909190915090805190602001906107b39291906115c1565b506001915050919050565b60016020528060005260406000206000915054906101000a900463ffffffff1681565b600060149054906101000a900463ffffffff1681565b6107ff611668565b6000600160006003856040516108159190611c85565b908152602001604051809103902060009054906101000a900473ffffffffffffffffffffffffffffffffffffffff1673ffffffffffffffffffffffffffffffffffffffff1673ffffffffffffffffffffffffffffffffffffffff16815260200190815260200160002060009054906101000a900463ffffffff1663ffffffff16116108d5576040517f08c379a00000000000000000000000000000000000000000000000000000000081526004016108cc90611d34565b60405180910390fd5b604051806080016040528083815260200160026000600160006003886040516108fe9190611c85565b908152602001604051809103902060009054906101000a900473ffffffffffffffffffffffffffffffffffffffff1673ffffffffffffffffffffffffffffffffffffffff1673ffffffffffffffffffffffffffffffffffffffff16815260200190815260200160002060009054906101000a900463ffffffff1663ffffffff1663ffffffff16815260200190815260200160002060010154815260200160026000600160006003886040516109b39190611c85565b908152602001604051809103902060009054906101000a900473ffffffffffffffffffffffffffffffffffffffff1673ffffffffffffffffffffffffffffffffffffffff1673ffffffffffffffffffffffffffffffffffffffff16815260200190815260200160002060009054906101000a900463ffffffff1663ffffffff1663ffffffff1681526020019081526020016000206002018054610a559061204e565b80601f0160208091040260200160405190810160405280929190818152602001828054610a819061204e565b8015610ace5780601f10610aa357610100808354040283529160200191610ace565b820191906000526020600020905b815481529060010190602001808311610ab157829003601f168201915b505050505081526020016002600060016000600388604051610af09190611c85565b908152602001604051809103902060009054906101000a900473ffffffffffffffffffffffffffffffffffffffff1673ffffffffffffffffffffffffffffffffffffffff1673ffffffffffffffffffffffffffffffffffffffff16815260200190815260200160002060009054906101000a900463ffffffff1663ffffffff1663ffffffff1681526020019081526020016000206003018054610b929061204e565b80601f0160208091040260200160405190810160405280929190818152602001828054610bbe9061204e565b8015610c0b5780601f10610be057610100808354040283529160200191610c0b565b820191906000526020600020905b815481529060010190602001808311610bee57829003601f168201915b50505050508152509050919050565b610c22611668565b6000600160003373ffffffffffffffffffffffffffffffffffffffff1673ffffffffffffffffffffffffffffffffffffffff16815260200190815260200160002060009054906101000a900463ffffffff1663ffffffff1611610cba576040517f08c379a0000000000000000000000000000000000000000000000000000000008152600401610cb190611d74565b60405180910390fd5b604051806080016040528060026000600160003373ffffffffffffffffffffffffffffffffffffffff1673ffffffffffffffffffffffffffffffffffffffff16815260200190815260200160002060009054906101000a900463ffffffff1663ffffffff1663ffffffff1681526020019081526020016000206000018054610d419061204e565b80601f0160208091040260200160405190810160405280929190818152602001828054610d6d9061204e565b8015610dba5780601f10610d8f57610100808354040283529160200191610dba565b820191906000526020600020905b815481529060010190602001808311610d9d57829003601f168201915b5050505050815260200160026000600160003373ffffffffffffffffffffffffffffffffffffffff1673ffffffffffffffffffffffffffffffffffffffff16815260200190815260200160002060009054906101000a900463ffffffff1663ffffffff1663ffffffff16815260200190815260200160002060010154815260200160026000600160003373ffffffffffffffffffffffffffffffffffffffff1673ffffffffffffffffffffffffffffffffffffffff16815260200190815260200160002060009054906101000a900463ffffffff1663ffffffff1663ffffffff1681526020019081526020016000206002018054610eb79061204e565b80601f0160208091040260200160405190810160405280929190818152602001828054610ee39061204e565b8015610f305780601f10610f0557610100808354040283529160200191610f30565b820191906000526020600020905b815481529060010190602001808311610f1357829003601f168201915b5050505050815260200160026000600160003373ffffffffffffffffffffffffffffffffffffffff1673ffffffffffffffffffffffffffffffffffffffff16815260200190815260200160002060009054906101000a900463ffffffff1663ffffffff1663ffffffff1681526020019081526020016000206003018054610fb69061204e565b80601f0160208091040260200160405190810160405280929190818152602001828054610fe29061204e565b801561102f5780601f106110045761010080835404028352916020019161102f565b820191906000526020600020905b81548152906001019060200180831161101257829003601f168201915b5050505050815250905090565b60008054906101000a900473ffffffffffffffffffffffffffffffffffffffff1681565b600080600160003373ffffffffffffffffffffffffffffffffffffffff1673ffffffffffffffffffffffffffffffffffffffff16815260200190815260200160002060009054906101000a900463ffffffff1663ffffffff1614156110c857600090506110cd565b600190505b90565b6003818051602081018201805184825260208301602085012081835280955050505050506000915054906101000a900473ffffffffffffffffffffffffffffffffffffffff1681565b60606000600160003373ffffffffffffffffffffffffffffffffffffffff1673ffffffffffffffffffffffffffffffffffffffff16815260200190815260200160002060009054906101000a900463ffffffff1663ffffffff16116111b3576040517f08c379a00000000000000000000000000000000000000000000000000000000081526004016111aa90611d94565b60405180910390fd5b6000600160003373ffffffffffffffffffffffffffffffffffffffff1673ffffffffffffffffffffffffffffffffffffffff16815260200190815260200160002060009054906101000a900463ffffffff169050600260008263ffffffff1663ffffffff168152602001908152602001600020600401805480602002602001604051908101604052809291908181526020016000905b828210156112e1578382906000526020600020018054806020026020016040519081016040528092919081815260200182805480156112cd57602002820191906000526020600020906000905b82829054906101000a900460ff1660ff16815260200190600101906020826000010492830192600103820291508084116112965790505b505050505081526020019060010190611249565b5050505091505090565b60606000600160006003856040516113039190611c85565b908152602001604051809103902060009054906101000a900473ffffffffffffffffffffffffffffffffffffffff1673ffffffffffffffffffffffffffffffffffffffff1673ffffffffffffffffffffffffffffffffffffffff16815260200190815260200160002060009054906101000a900463ffffffff1663ffffffff16116113c3576040517f08c379a00000000000000000000000000000000000000000000000000000000081526004016113ba90611cf4565b60405180910390fd5b6000600160006003856040516113d99190611c85565b908152602001604051809103902060009054906101000a900473ffffffffffffffffffffffffffffffffffffffff1673ffffffffffffffffffffffffffffffffffffffff1673ffffffffffffffffffffffffffffffffffffffff16815260200190815260200160002060009054906101000a900463ffffffff169050600260008263ffffffff1663ffffffff168152602001908152602001600020600401805480602002602001604051908101604052809291908181526020016000905b8282101561152f5783829060005260206000200180548060200260200160405190810160405280929190818152602001828054801561151b57602002820191906000526020600020906000905b82829054906101000a900460ff1660ff16815260200190600101906020826000010492830192600103820291508084116114e45790505b505050505081526020019060010190611497565b50505050915050919050565b8280546115479061204e565b90600052602060002090601f01602090048101928261156957600085556115b0565b82601f1061158257805160ff19168380011785556115b0565b828001600101855582156115b0579182015b828111156115af578251825591602001919060010190611594565b5b5090506115bd9190611690565b5090565b82805482825590600052602060002090601f016020900481019282156116575791602002820160005b8382111561162857835183826101000a81548160ff021916908360ff16021790555092602001926001016020816000010492830192600103026115ea565b80156116555782816101000a81549060ff0219169055600101602081600001049283019260010302611628565b505b5090506116649190611690565b5090565b6040518060800160405280606081526020016000815260200160608152602001606081525090565b5b808211156116a9576000816000905550600101611691565b5090565b60006116c06116bb84611e31565b611e0c565b905080838252602082019050828560208602820111156116e3576116e2612143565b5b60005b8581101561171357816116f988826117f0565b8452602084019350602083019250506001810190506116e6565b5050509392505050565b600061173061172b84611e5d565b611e0c565b90508281526020810184848401111561174c5761174b612148565b5b61175784828561200c565b509392505050565b60008135905061176e8161225e565b61177781611f72565b905092915050565b600082601f8301126117945761179361213e565b5b81356117a48482602086016116ad565b91505092915050565b600082601f8301126117c2576117c161213e565b5b81356117d284826020860161171d565b91505092915050565b6000813590506117ea81612275565b92915050565b6000813590506117ff8161228c565b92915050565b60006020828403121561181b5761181a612152565b5b60006118298482850161175f565b91505092915050565b60006020828403121561184857611847612152565b5b600082013567ffffffffffffffff8111156118665761186561214d565b5b6118728482850161177f565b91505092915050565b60006020828403121561189157611890612152565b5b600082013567ffffffffffffffff8111156118af576118ae61214d565b5b6118bb848285016117ad565b91505092915050565b600080600080608085870312156118de576118dd612152565b5b600085013567ffffffffffffffff8111156118fc576118fb61214d565b5b611908878288016117ad565b945050602085013567ffffffffffffffff8111156119295761192861214d565b5b611935878288016117ad565b935050604085013567ffffffffffffffff8111156119565761195561214d565b5b611962878288016117ad565b9250506060611973878288016117db565b91505092959194509250565b600061198b8383611a2f565b905092915050565b600061199f8383611c76565b60208301905092915050565b6119b481611f72565b82525050565b60006119c582611eae565b6119cf8185611ee9565b9350836020820285016119e185611e8e565b8060005b85811015611a1d57848403895281516119fe858261197f565b9450611a0983611ecf565b925060208a019950506001810190506119e5565b50829750879550505050505092915050565b6000611a3a82611eb9565b611a448185611efa565b9350611a4f83611e9e565b8060005b83811015611a80578151611a678882611993565b9750611a7283611edc565b925050600181019050611a53565b5085935050505092915050565b611a9681611f84565b82525050565b6000611aa782611ec4565b611ab18185611f0b565b9350611ac181856020860161201b565b611aca81612157565b840191505092915050565b6000611ae082611ec4565b611aea8185611f2d565b9350611afa81856020860161201b565b80840191505092915050565b6000611b13601b83611f1c565b9150611b1e82612168565b602082019050919050565b6000611b36601b83611f1c565b9150611b4182612191565b602082019050919050565b6000611b59601783611f1c565b9150611b64826121ba565b602082019050919050565b6000611b7c601b83611f1c565b9150611b87826121e3565b602082019050919050565b6000611b9f601383611f1c565b9150611baa8261220c565b602082019050919050565b6000611bc2601283611f1c565b9150611bcd82612235565b602082019050919050565b60006080830160008301518482036000860152611bf58282611a9c565b9150506020830151611c0a6020860182611c49565b5060408301518482036040860152611c228282611a9c565b91505060608301518482036060860152611c3c8282611a9c565b9150508091505092915050565b611c5281611fd1565b82525050565b611c6181611fdb565b82525050565b611c7081611feb565b82525050565b611c7f81611fff565b82525050565b6000611c918284611ad5565b915081905092915050565b6000602082019050611cb160008301846119ab565b92915050565b60006020820190508181036000830152611cd181846119ba565b905092915050565b6000602082019050611cee6000830184611a8d565b92915050565b60006020820190508181036000830152611d0d81611b06565b9050919050565b60006020820190508181036000830152611d2d81611b29565b9050919050565b60006020820190508181036000830152611d4d81611b4c565b9050919050565b60006020820190508181036000830152611d6d81611b6f565b9050919050565b60006020820190508181036000830152611d8d81611b92565b9050919050565b60006020820190508181036000830152611dad81611bb5565b9050919050565b60006020820190508181036000830152611dce8184611bd8565b905092915050565b6000602082019050611deb6000830184611c58565b92915050565b6000602082019050611e066000830184611c67565b92915050565b6000611e16611e27565b9050611e228282612080565b919050565b6000604051905090565b600067ffffffffffffffff821115611e4c57611e4b61210f565b5b602082029050602081019050919050565b600067ffffffffffffffff821115611e7857611e7761210f565b5b611e8182612157565b9050602081019050919050565b6000819050602082019050919050565b6000819050602082019050919050565b600081519050919050565b600081519050919050565b600081519050919050565b6000602082019050919050565b6000602082019050919050565b600082825260208201905092915050565b600082825260208201905092915050565b600082825260208201905092915050565b600082825260208201905092915050565b600081905092915050565b6000611f4382611fdb565b9150611f4e83611fdb565b92508263ffffffff03821115611f6757611f666120b1565b5b828201905092915050565b6000611f7d82611f90565b9050919050565b60008115159050919050565b600073ffffffffffffffffffffffffffffffffffffffff82169050919050565b600074ffffffffffffffffffffffffffffffffffffffffff82169050919050565b6000819050919050565b600063ffffffff82169050919050565b600067ffffffffffffffff82169050919050565b600060ff82169050919050565b82818337600083830152505050565b60005b8381101561203957808201518184015260208101905061201e565b83811115612048576000848401525b50505050565b6000600282049050600182168061206657607f821691505b6020821081141561207a576120796120e0565b5b50919050565b61208982612157565b810181811067ffffffffffffffff821117156120a8576120a761210f565b5b80604052505050565b7f4e487b7100000000000000000000000000000000000000000000000000000000600052601160045260246000fd5b7f4e487b7100000000000000000000000000000000000000000000000000000000600052602260045260246000fd5b7f4e487b7100000000000000000000000000000000000000000000000000000000600052604160045260246000fd5b600080fd5b600080fd5b600080fd5b600080fd5b600080fd5b6000601f19601f8301169050919050565b7f5468697320557365724e616d6520646f65736e27742065786973740000000000600082015250565b7f75736572206b657920616c726561647920726567697374657265640000000000600082015250565b7f757365726e616d65206e6f742072656769737465726564000000000000000000600082015250565b7f757365726e616d6520616c726561647920726567697374657265640000000000600082015250565b7f75736572206e6f74207265676973746572656400000000000000000000000000600082015250565b7f6d75737420426520726567697374657265640000000000000000000000000000600082015250565b61226781611fb0565b811461227257600080fd5b50565b61227e81611fd1565b811461228957600080fd5b50565b61229581611fff565b81146122a057600080fd5b5056fea26474726f6e58221220325b04ada031adaac55d7a45aa5d9dc21f10a982cb568268548158bbbf6207a964736f6c63430008060033",
  "source": "// SPDX-License-Identifier: MIT pragma solidity >=0.4.22 <0.9.0;\npragma solidity ^0.8.6;\n\n\ncontract Library2  {\n    address public owner;\n    struct MyData {\n        string username;\n        uint256 creationDate;\n        string country;\n        string language;\n        uint8[][] records;\n    }\n\n    uint32 public nbUsers = 0;\n\n    mapping(address => uint32) public userIds;\n    // userId => UserType\n    mapping(uint32 => MyData) private records;\n    mapping(string => address) public usernames;\n\n    constructor () {\n        owner = msg.sender;\n    }\n\n    modifier onlyOwner() {\n        require(msg.sender == owner);\n        _;\n    }\n    function isOwner() internal view returns(bool) {\n        return owner == msg.sender;\n    }\n\n//\n//    function _msgData() internal view  returns (bytes memory) {\n//        this; // silence state mutability warning without generating bytecode - see https://github.com/ethereum/solidity/issues/2691\n//        return msg.data;\n//    }\n//\n//    function _msgValue() internal view  returns (uint256 value) {\n//        return msg.value;\n//    }\n\n    function hasAccount() public view returns(bool has) {\n        if (userIds[msg.sender] == 0) {\n            return false;\n        }\n        return true;\n    }\n\n    struct PublicInfo {\n        string username;\n        uint256 creationTime;\n        string country;\n        string language;\n    }\n\n    function infos(string memory username) public view returns (PublicInfo memory info) {\n        require(userIds[usernames[username]] >0, \"username not registered\");\n        return PublicInfo(username, records[userIds[usernames[username]]].creationDate, records[userIds[usernames[username]]].country, records[userIds[usernames[username]]].language);\n    }\n\n    function myInfos() public view returns (PublicInfo memory info) {\n        require (userIds[msg.sender] > 0, \"user not registered\");\n        return PublicInfo(records[userIds[msg.sender]].username, records[userIds[msg.sender]].creationDate, records[userIds[msg.sender]].country, records[userIds[msg.sender]].language);\n    }\n\n    function register(string memory username, string memory country, string memory language, uint256  donation) public returns (uint64 id){\n        require(userIds[usernames[username]] ==0, \"username already registered\");\n        require (userIds[msg.sender] == 0, \"user key already registered\");\n        if (userIds[msg.sender] == 0) {\n            nbUsers = nbUsers+1;\n            // not registered\n            userIds[msg.sender] = nbUsers;\n            records[nbUsers].username = username;\n            records[nbUsers].creationDate = block.timestamp;\n            records[nbUsers].country = country;\n            records[nbUsers].language = language;\n        }\n        id= userIds[msg.sender];\n        return id;\n    }\n\n    function addPatches( uint8[] memory data) public returns (bool  ok) {\n        require(userIds[msg.sender] > 0, \"must Be registered\");\n        uint32 id =  userIds[msg.sender];\n        records[id].records.push(data);\n        ok = true;\n        return ok;\n    }\n\n    function loadUsernamePatches(string memory username) public view returns ( uint8[][] memory myData) {\n        require(userIds[usernames[username]] > 0, \"This UserName doesn't exist\");\n        uint32 id = userIds[usernames[username]];\n        return records[id].records;\n    }\n\n    function loadPatches() public view returns ( uint8[][] memory myData) {\n        require(userIds[msg.sender] > 0, \"must Be registered\");\n        uint32 id =  userIds[msg.sender];\n        return records[id].records;\n    }\n\n}",
  "sourcePath": "/run/media/dme/data/sync/code/gr8-lib/blockchains/TRON/the-library/supertronbox/contracts/Library2.sol",
  "compiler": {
    "name": "solc",
    "version": "0.8.6+commit.0e36fba0.mod.Emscripten.clang"
  },
  "schemaVersion": "2.0.1",
  "updatedAt": "2025-03-03T20:32:44.441Z"
}