{
  "contractName": "Library5",
  "abi": [
    {
      "inputs": [],
      "stateMutability": "nonpayable",
      "type": "constructor"
    },
    {
      "inputs": [
        {
          "internalType": "uint64[10]",
          "name": "data",
          "type": "uint64[10]"
        }
      ],
      "name": "addPatches",
      "outputs": [
        {
          "internalType": "bool",
          "name": "ok",
          "type": "bool"
        }
      ],
      "stateMutability": "nonpayable",
      "type": "function"
    },
    {
      "inputs": [],
      "name": "hasAccount",
      "outputs": [
        {
          "internalType": "bool",
          "name": "has",
          "type": "bool"
        }
      ],
      "stateMutability": "view",
      "type": "function"
    },
    {
      "inputs": [
        {
          "internalType": "string",
          "name": "username",
          "type": "string"
        }
      ],
      "name": "infos",
      "outputs": [
        {
          "components": [
            {
              "internalType": "string",
              "name": "username",
              "type": "string"
            },
            {
              "internalType": "uint256",
              "name": "creationTime",
              "type": "uint256"
            },
            {
              "internalType": "string",
              "name": "country",
              "type": "string"
            },
            {
              "internalType": "string",
              "name": "language",
              "type": "string"
            }
          ],
          "internalType": "struct Library5.PublicInfo",
          "name": "info",
          "type": "tuple"
        }
      ],
      "stateMutability": "view",
      "type": "function"
    },
    {
      "inputs": [],
      "name": "loadPatches",
      "outputs": [
        {
          "internalType": "uint64[10][]",
          "name": "myData",
          "type": "uint64[10][]"
        }
      ],
      "stateMutability": "view",
      "type": "function"
    },
    {
      "inputs": [
        {
          "internalType": "string",
          "name": "username",
          "type": "string"
        }
      ],
      "name": "loadUsernamePatches",
      "outputs": [
        {
          "internalType": "uint64[10][]",
          "name": "myData",
          "type": "uint64[10][]"
        }
      ],
      "stateMutability": "view",
      "type": "function"
    },
    {
      "inputs": [],
      "name": "myInfos",
      "outputs": [
        {
          "components": [
            {
              "internalType": "string",
              "name": "username",
              "type": "string"
            },
            {
              "internalType": "uint256",
              "name": "creationTime",
              "type": "uint256"
            },
            {
              "internalType": "string",
              "name": "country",
              "type": "string"
            },
            {
              "internalType": "string",
              "name": "language",
              "type": "string"
            }
          ],
          "internalType": "struct Library5.PublicInfo",
          "name": "info",
          "type": "tuple"
        }
      ],
      "stateMutability": "view",
      "type": "function"
    },
    {
      "inputs": [],
      "name": "nbUsers",
      "outputs": [
        {
          "internalType": "uint64",
          "name": "",
          "type": "uint64"
        }
      ],
      "stateMutability": "view",
      "type": "function"
    },
    {
      "inputs": [],
      "name": "owner",
      "outputs": [
        {
          "internalType": "address",
          "name": "",
          "type": "address"
        }
      ],
      "stateMutability": "view",
      "type": "function"
    },
    {
      "inputs": [
        {
          "internalType": "string",
          "name": "username",
          "type": "string"
        },
        {
          "internalType": "string",
          "name": "country",
          "type": "string"
        },
        {
          "internalType": "string",
          "name": "language",
          "type": "string"
        },
        {
          "internalType": "uint256",
          "name": "donation",
          "type": "uint256"
        }
      ],
      "name": "register",
      "outputs": [
        {
          "internalType": "uint64",
          "name": "id",
          "type": "uint64"
        }
      ],
      "stateMutability": "nonpayable",
      "type": "function"
    },
    {
      "inputs": [
        {
          "internalType": "address",
          "name": "",
          "type": "address"
        }
      ],
      "name": "userIds",
      "outputs": [
        {
          "internalType": "uint64",
          "name": "",
          "type": "uint64"
        }
      ],
      "stateMutability": "view",
      "type": "function"
    },
    {
      "inputs": [
        {
          "internalType": "string",
          "name": "",
          "type": "string"
        }
      ],
      "name": "usernames",
      "outputs": [
        {
          "internalType": "address",
          "name": "",
          "type": "address"
        }
      ],
      "stateMutability": "view",
      "type": "function"
    }
  ],
  "bytecode": "0x608060405260008060146101000a81548167ffffffffffffffff021916908367ffffffffffffffff16021790555034801561003957600080fd5b50d3801561004657600080fd5b50d2801561005357600080fd5b50336000806101000a81548173ffffffffffffffffffffffffffffffffffffffff021916908373ffffffffffffffffffffffffffffffffffffffff16021790555061263a806100a36000396000f3fe608060405234801561001057600080fd5b50d3801561001d57600080fd5b50d2801561002a57600080fd5b50600436106100c35760003560e01c8063851bdb7d1161008b578063851bdb7d146101a65780638da5cb5b146101c45780638f76a380146101e2578063aaee301f14610200578063dd5ad20814610230578063ec582cd51461024e576100c3565b806302110d25146100c85780634081db51146100f85780635d3dff66146101285780636bb355c8146101585780637b973bd014610176575b600080fd5b6100e260048036038101906100dd9190611ba1565b61027e565b6040516100ef91906120ce565b60405180910390f35b610112600480360381019061010d9190611afd565b6106c9565b60405161011f91906120ce565b60405180910390f35b610142600480360381019061013d9190611b2a565b6106f0565b60405161014f9190611fb1565b60405180910390f35b610160610957565b60405161016d91906120ce565b60405180910390f35b610190600480360381019061018b9190611b58565b610971565b60405161019d91906120ac565b60405180910390f35b6101ae610dc0565b6040516101bb91906120ac565b60405180910390f35b6101cc61121a565b6040516101d99190611f74565b60405180910390f35b6101ea61123e565b6040516101f79190611fb1565b60405180910390f35b61021a60048036038101906102159190611b58565b6112b6565b6040516102279190611f74565b60405180910390f35b6102386112ff565b6040516102459190611f8f565b60405180910390f35b61026860048036038101906102639190611b58565b611588565b6040516102759190611f8f565b60405180910390f35b600080600160006003886040516102959190611f5d565b908152602001604051809103902060009054906101000a900473ffffffffffffffffffffffffffffffffffffffff1673ffffffffffffffffffffffffffffffffffffffff1673ffffffffffffffffffffffffffffffffffffffff16815260200190815260200160002060009054906101000a900467ffffffffffffffff1667ffffffffffffffff161461035d576040517f08c379a00000000000000000000000000000000000000000000000000000000081526004016103549061204c565b60405180910390fd5b6000600160003373ffffffffffffffffffffffffffffffffffffffff1673ffffffffffffffffffffffffffffffffffffffff16815260200190815260200160002060009054906101000a900467ffffffffffffffff1667ffffffffffffffff16146103fd576040517f08c379a00000000000000000000000000000000000000000000000000000000081526004016103f49061200c565b60405180910390fd5b6000600160003373ffffffffffffffffffffffffffffffffffffffff1673ffffffffffffffffffffffffffffffffffffffff16815260200190815260200160002060009054906101000a900467ffffffffffffffff1667ffffffffffffffff16141561066b576001600060149054906101000a900467ffffffffffffffff1661048691906121dd565b600060146101000a81548167ffffffffffffffff021916908367ffffffffffffffff160217905550600060149054906101000a900467ffffffffffffffff16600160003373ffffffffffffffffffffffffffffffffffffffff1673ffffffffffffffffffffffffffffffffffffffff16815260200190815260200160002060006101000a81548167ffffffffffffffff021916908367ffffffffffffffff16021790555084600260008060149054906101000a900467ffffffffffffffff1667ffffffffffffffff1667ffffffffffffffff168152602001908152602001600020600001908051906020019061057d92919061188f565b5042600260008060149054906101000a900467ffffffffffffffff1667ffffffffffffffff1667ffffffffffffffff1681526020019081526020016000206001018190555083600260008060149054906101000a900467ffffffffffffffff1667ffffffffffffffff1667ffffffffffffffff168152602001908152602001600020600201908051906020019061061592919061188f565b5082600260008060149054906101000a900467ffffffffffffffff1667ffffffffffffffff1667ffffffffffffffff168152602001908152602001600020600301908051906020019061066992919061188f565b505b600160003373ffffffffffffffffffffffffffffffffffffffff1673ffffffffffffffffffffffffffffffffffffffff16815260200190815260200160002060009054906101000a900467ffffffffffffffff169050949350505050565b60016020528060005260406000206000915054906101000a900467ffffffffffffffff1681565b600080600160003373ffffffffffffffffffffffffffffffffffffffff1673ffffffffffffffffffffffffffffffffffffffff16815260200190815260200160002060009054906101000a900467ffffffffffffffff1667ffffffffffffffff1611610791576040517f08c379a00000000000000000000000000000000000000000000000000000000081526004016107889061208c565b60405180910390fd5b6000600160003373ffffffffffffffffffffffffffffffffffffffff1673ffffffffffffffffffffffffffffffffffffffff16815260200190815260200160002060009054906101000a900467ffffffffffffffff1690506014600260008367ffffffffffffffff1667ffffffffffffffff16815260200190815260200160002060050160009054906101000a900460ff1660ff1610610866576040517f08c379a000000000000000000000000000000000000000000000000000000000815260040161085d90611fec565b60405180910390fd5b82600260008367ffffffffffffffff1667ffffffffffffffff1681526020019081526020016000206004016000600260008567ffffffffffffffff1667ffffffffffffffff16815260200190815260200160002060050160009054906101000a900460ff1660ff1660ff16815260200190815260200160002090600a6108ed929190611915565b506001600260008367ffffffffffffffff1667ffffffffffffffff16815260200190815260200160002060050160008282829054906101000a900460ff16610935919061221b565b92506101000a81548160ff021916908360ff1602179055506001915050919050565b600060149054906101000a900467ffffffffffffffff1681565b6109796119ce565b60006001600060038560405161098f9190611f5d565b908152602001604051809103902060009054906101000a900473ffffffffffffffffffffffffffffffffffffffff1673ffffffffffffffffffffffffffffffffffffffff1673ffffffffffffffffffffffffffffffffffffffff16815260200190815260200160002060009054906101000a900467ffffffffffffffff1667ffffffffffffffff1611610a57576040517f08c379a0000000000000000000000000000000000000000000000000000000008152600401610a4e9061202c565b60405180910390fd5b60405180608001604052808381526020016002600060016000600388604051610a809190611f5d565b908152602001604051809103902060009054906101000a900473ffffffffffffffffffffffffffffffffffffffff1673ffffffffffffffffffffffffffffffffffffffff1673ffffffffffffffffffffffffffffffffffffffff16815260200190815260200160002060009054906101000a900467ffffffffffffffff1667ffffffffffffffff1667ffffffffffffffff1681526020019081526020016000206001015481526020016002600060016000600388604051610b419190611f5d565b908152602001604051809103902060009054906101000a900473ffffffffffffffffffffffffffffffffffffffff1673ffffffffffffffffffffffffffffffffffffffff1673ffffffffffffffffffffffffffffffffffffffff16815260200190815260200160002060009054906101000a900467ffffffffffffffff1667ffffffffffffffff1667ffffffffffffffff1681526020019081526020016000206002018054610bef9061231e565b80601f0160208091040260200160405190810160405280929190818152602001828054610c1b9061231e565b8015610c685780601f10610c3d57610100808354040283529160200191610c68565b820191906000526020600020905b815481529060010190602001808311610c4b57829003601f168201915b505050505081526020016002600060016000600388604051610c8a9190611f5d565b908152602001604051809103902060009054906101000a900473ffffffffffffffffffffffffffffffffffffffff1673ffffffffffffffffffffffffffffffffffffffff1673ffffffffffffffffffffffffffffffffffffffff16815260200190815260200160002060009054906101000a900467ffffffffffffffff1667ffffffffffffffff1667ffffffffffffffff1681526020019081526020016000206003018054610d389061231e565b80601f0160208091040260200160405190810160405280929190818152602001828054610d649061231e565b8015610db15780601f10610d8657610100808354040283529160200191610db1565b820191906000526020600020905b815481529060010190602001808311610d9457829003601f168201915b50505050508152509050919050565b610dc86119ce565b6000600160003373ffffffffffffffffffffffffffffffffffffffff1673ffffffffffffffffffffffffffffffffffffffff16815260200190815260200160002060009054906101000a900467ffffffffffffffff1667ffffffffffffffff1611610e68576040517f08c379a0000000000000000000000000000000000000000000000000000000008152600401610e5f9061206c565b60405180910390fd5b604051806080016040528060026000600160003373ffffffffffffffffffffffffffffffffffffffff1673ffffffffffffffffffffffffffffffffffffffff16815260200190815260200160002060009054906101000a900467ffffffffffffffff1667ffffffffffffffff1667ffffffffffffffff1681526020019081526020016000206000018054610efb9061231e565b80601f0160208091040260200160405190810160405280929190818152602001828054610f279061231e565b8015610f745780601f10610f4957610100808354040283529160200191610f74565b820191906000526020600020905b815481529060010190602001808311610f5757829003601f168201915b5050505050815260200160026000600160003373ffffffffffffffffffffffffffffffffffffffff1673ffffffffffffffffffffffffffffffffffffffff16815260200190815260200160002060009054906101000a900467ffffffffffffffff1667ffffffffffffffff1667ffffffffffffffff16815260200190815260200160002060010154815260200160026000600160003373ffffffffffffffffffffffffffffffffffffffff1673ffffffffffffffffffffffffffffffffffffffff16815260200190815260200160002060009054906101000a900467ffffffffffffffff1667ffffffffffffffff1667ffffffffffffffff16815260200190815260200160002060020180546110899061231e565b80601f01602080910402602001604051908101604052809291908181526020018280546110b59061231e565b80156111025780601f106110d757610100808354040283529160200191611102565b820191906000526020600020905b8154815290600101906020018083116110e557829003601f168201915b5050505050815260200160026000600160003373ffffffffffffffffffffffffffffffffffffffff1673ffffffffffffffffffffffffffffffffffffffff16815260200190815260200160002060009054906101000a900467ffffffffffffffff1667ffffffffffffffff1667ffffffffffffffff16815260200190815260200160002060030180546111949061231e565b80601f01602080910402602001604051908101604052809291908181526020018280546111c09061231e565b801561120d5780601f106111e25761010080835404028352916020019161120d565b820191906000526020600020905b8154815290600101906020018083116111f057829003601f168201915b5050505050815250905090565b60008054906101000a900473ffffffffffffffffffffffffffffffffffffffff1681565b600080600160003373ffffffffffffffffffffffffffffffffffffffff1673ffffffffffffffffffffffffffffffffffffffff16815260200190815260200160002060009054906101000a900467ffffffffffffffff1667ffffffffffffffff1614156112ae57600090506112b3565b600190505b90565b6003818051602081018201805184825260208301602085012081835280955050505050506000915054906101000a900473ffffffffffffffffffffffffffffffffffffffff1681565b60606000600160003373ffffffffffffffffffffffffffffffffffffffff1673ffffffffffffffffffffffffffffffffffffffff16815260200190815260200160002060009054906101000a900467ffffffffffffffff1667ffffffffffffffff16116113a1576040517f08c379a00000000000000000000000000000000000000000000000000000000081526004016113989061208c565b60405180910390fd5b6000600160003373ffffffffffffffffffffffffffffffffffffffff1673ffffffffffffffffffffffffffffffffffffffff16815260200190815260200160002060009054906101000a900467ffffffffffffffff1690506000601467ffffffffffffffff81111561141657611415612438565b5b60405190808252806020026020018201604052801561144f57816020015b61143c6119f6565b8152602001906001900390816114345790505b50905060005b600260008467ffffffffffffffff1667ffffffffffffffff16815260200190815260200160002060050160009054906101000a900460ff1660ff168160ff16101561157f57600260008467ffffffffffffffff1667ffffffffffffffff16815260200190815260200160002060040160008260ff1660ff168152602001908152602001600020600a806020026040519081016040528092919082600a8015611546576020028201916000905b82829054906101000a900467ffffffffffffffff1667ffffffffffffffff16815260200190600801906020826007010492830192600103820291508084116115015790505b5050505050828260ff168151811061156157611560612409565b5b6020026020010181905250808061157790612381565b915050611455565b50809250505090565b60606000600160006003856040516115a09190611f5d565b908152602001604051809103902060009054906101000a900473ffffffffffffffffffffffffffffffffffffffff1673ffffffffffffffffffffffffffffffffffffffff1673ffffffffffffffffffffffffffffffffffffffff16815260200190815260200160002060009054906101000a900467ffffffffffffffff1667ffffffffffffffff1611611668576040517f08c379a000000000000000000000000000000000000000000000000000000000815260040161165f90611fcc565b60405180910390fd5b60006001600060038560405161167e9190611f5d565b908152602001604051809103902060009054906101000a900473ffffffffffffffffffffffffffffffffffffffff1673ffffffffffffffffffffffffffffffffffffffff1673ffffffffffffffffffffffffffffffffffffffff16815260200190815260200160002060009054906101000a900467ffffffffffffffff1690506000601467ffffffffffffffff81111561171b5761171a612438565b5b60405190808252806020026020018201604052801561175457816020015b6117416119f6565b8152602001906001900390816117395790505b50905060005b600260008467ffffffffffffffff1667ffffffffffffffff16815260200190815260200160002060050160009054906101000a900460ff1660ff168160ff16101561188457600260008467ffffffffffffffff1667ffffffffffffffff16815260200190815260200160002060040160008260ff1660ff168152602001908152602001600020600a806020026040519081016040528092919082600a801561184b576020028201916000905b82829054906101000a900467ffffffffffffffff1667ffffffffffffffff16815260200190600801906020826007010492830192600103820291508084116118065790505b5050505050828260ff168151811061186657611865612409565b5b6020026020010181905250808061187c90612381565b91505061175a565b508092505050919050565b82805461189b9061231e565b90600052602060002090601f0160209004810192826118bd5760008555611904565b82601f106118d657805160ff1916838001178555611904565b82800160010185558215611904579182015b828111156119035782518255916020019190600101906118e8565b5b5090506119119190611a19565b5090565b82600a6003016004900481019282156119bd5791602002820160005b8382111561198757833567ffffffffffffffff1683826101000a81548167ffffffffffffffff021916908367ffffffffffffffff1602179055509260200192600801602081600701049283019260010302611931565b80156119bb5782816101000a81549067ffffffffffffffff0219169055600801602081600701049283019260010302611987565b505b5090506119ca9190611a19565b5090565b6040518060800160405280606081526020016000815260200160608152602001606081525090565b604051806101400160405280600a90602082028036833780820191505090505090565b5b80821115611a32576000816000905550600101611a1a565b5090565b6000611a49611a448461210e565b6120e9565b905082815260208101848484011115611a6557611a64612471565b5b611a708482856122dc565b509392505050565b600081359050611a87816125d6565b611a9081612252565b905092915050565b6000819050826020600a0282011115611ab457611ab361246c565b5b92915050565b600082601f830112611acf57611ace612467565b5b8135611adf848260208601611a36565b91505092915050565b600081359050611af7816125ed565b92915050565b600060208284031215611b1357611b1261247b565b5b6000611b2184828501611a78565b91505092915050565b60006101408284031215611b4157611b4061247b565b5b6000611b4f84828501611a98565b91505092915050565b600060208284031215611b6e57611b6d61247b565b5b600082013567ffffffffffffffff811115611b8c57611b8b612476565b5b611b9884828501611aba565b91505092915050565b60008060008060808587031215611bbb57611bba61247b565b5b600085013567ffffffffffffffff811115611bd957611bd8612476565b5b611be587828801611aba565b945050602085013567ffffffffffffffff811115611c0657611c05612476565b5b611c1287828801611aba565b935050604085013567ffffffffffffffff811115611c3357611c32612476565b5b611c3f87828801611aba565b9250506060611c5087828801611ae8565b91505092959194509250565b6000611c688383611cfa565b6101408301905092915050565b6000611c818383611f3f565b60208301905092915050565b611c9681612252565b82525050565b6000611ca782612159565b611cb18185612194565b9350611cbc8361213f565b8060005b83811015611ced578151611cd48882611c5c565b9750611cdf8361217a565b925050600181019050611cc0565b5085935050505092915050565b611d0381612164565b611d0d81846121a5565b9250611d188261214f565b8060005b83811015611d49578151611d308782611c75565b9650611d3b83612187565b925050600181019050611d1c565b505050505050565b611d5a81612264565b82525050565b6000611d6b8261216f565b611d7581856121b0565b9350611d858185602086016122eb565b611d8e81612480565b840191505092915050565b6000611da48261216f565b611dae81856121d2565b9350611dbe8185602086016122eb565b80840191505092915050565b6000611dd7601b836121c1565b9150611de282612491565b602082019050919050565b6000611dfa6035836121c1565b9150611e05826124ba565b604082019050919050565b6000611e1d601b836121c1565b9150611e2882612509565b602082019050919050565b6000611e406017836121c1565b9150611e4b82612532565b602082019050919050565b6000611e63601b836121c1565b9150611e6e8261255b565b602082019050919050565b6000611e866013836121c1565b9150611e9182612584565b602082019050919050565b6000611ea96012836121c1565b9150611eb4826125ad565b602082019050919050565b60006080830160008301518482036000860152611edc8282611d60565b9150506020830151611ef16020860182611f30565b5060408301518482036040860152611f098282611d60565b91505060608301518482036060860152611f238282611d60565b9150508091505092915050565b611f39816122b1565b82525050565b611f48816122bb565b82525050565b611f57816122bb565b82525050565b6000611f698284611d99565b915081905092915050565b6000602082019050611f896000830184611c8d565b92915050565b60006020820190508181036000830152611fa98184611c9c565b905092915050565b6000602082019050611fc66000830184611d51565b92915050565b60006020820190508181036000830152611fe581611dca565b9050919050565b6000602082019050818103600083015261200581611ded565b9050919050565b6000602082019050818103600083015261202581611e10565b9050919050565b6000602082019050818103600083015261204581611e33565b9050919050565b6000602082019050818103600083015261206581611e56565b9050919050565b6000602082019050818103600083015261208581611e79565b9050919050565b600060208201905081810360008301526120a581611e9c565b9050919050565b600060208201905081810360008301526120c68184611ebf565b905092915050565b60006020820190506120e36000830184611f4e565b92915050565b60006120f3612104565b90506120ff8282612350565b919050565b6000604051905090565b600067ffffffffffffffff82111561212957612128612438565b5b61213282612480565b9050602081019050919050565b6000819050602082019050919050565b6000819050919050565b600081519050919050565b6000600a9050919050565b600081519050919050565b6000602082019050919050565b6000602082019050919050565b600082825260208201905092915050565b600081905092915050565b600082825260208201905092915050565b600082825260208201905092915050565b600081905092915050565b60006121e8826122bb565b91506121f3836122bb565b92508267ffffffffffffffff038211156122105761220f6123ab565b5b828201905092915050565b6000612226826122cf565b9150612231836122cf565b92508260ff03821115612247576122466123ab565b5b828201905092915050565b600061225d82612270565b9050919050565b60008115159050919050565b600073ffffffffffffffffffffffffffffffffffffffff82169050919050565b600074ffffffffffffffffffffffffffffffffffffffffff82169050919050565b6000819050919050565b600067ffffffffffffffff82169050919050565b600060ff82169050919050565b82818337600083830152505050565b60005b838110156123095780820151818401526020810190506122ee565b83811115612318576000848401525b50505050565b6000600282049050600182168061233657607f821691505b6020821081141561234a576123496123da565b5b50919050565b61235982612480565b810181811067ffffffffffffffff8211171561237857612377612438565b5b80604052505050565b600061238c826122cf565b915060ff8214156123a05761239f6123ab565b5b600182019050919050565b7f4e487b7100000000000000000000000000000000000000000000000000000000600052601160045260246000fd5b7f4e487b7100000000000000000000000000000000000000000000000000000000600052602260045260246000fd5b7f4e487b7100000000000000000000000000000000000000000000000000000000600052603260045260246000fd5b7f4e487b7100000000000000000000000000000000000000000000000000000000600052604160045260246000fd5b600080fd5b600080fd5b600080fd5b600080fd5b600080fd5b6000601f19601f8301169050919050565b7f5468697320557365724e616d6520646f65736e27742065786973740000000000600082015250565b7f6d6178696d756d206261636b7570206578636565646564202d2075706772616460008201527f6520796f757220736d61727420636f6e74726163740000000000000000000000602082015250565b7f75736572206b657920616c726561647920726567697374657265640000000000600082015250565b7f757365726e616d65206e6f742072656769737465726564000000000000000000600082015250565b7f757365726e616d6520616c726561647920726567697374657265640000000000600082015250565b7f75736572206e6f74207265676973746572656400000000000000000000000000600082015250565b7f6d75737420426520726567697374657265640000000000000000000000000000600082015250565b6125df81612290565b81146125ea57600080fd5b50565b6125f6816122b1565b811461260157600080fd5b5056fea26474726f6e58221220c914c5177fc926f16b3d0e2e960da875e450d14db66d1c12eecd1cd51218a6c464736f6c63430008060033",
  "source": "// SPDX-License-Identifier: MIT pragma solidity >=0.4.22 <0.9.0;\npragma solidity ^0.8.6;\n\n\ncontract Library5  {\n    address public owner;\n    struct MyData {\n        string username;\n        uint256 creationDate;\n        string country;\n        string language;\n        mapping(uint8 => uint64[10]) records;\n        uint8 nbCalls;\n    }\n\n    uint64 public nbUsers = 0;\n\n    mapping(address => uint64) public userIds;\n    // userId => UserType\n    mapping(uint64 => MyData) private records;\n    mapping(string => address) public usernames;\n\n    constructor () {\n        owner = msg.sender;\n    }\n\n    modifier onlyOwner() {\n        require(msg.sender == owner);\n        _;\n    }\n    function isOwner() internal view returns(bool) {\n        return owner == msg.sender;\n    }\n\n//\n//    function _msgData() internal view  returns (bytes memory) {\n//        this; // silence state mutability warning without generating bytecode - see https://github.com/ethereum/solidity/issues/2691\n//        return msg.data;\n//    }\n//\n//    function _msgValue() internal view  returns (uint256 value) {\n//        return msg.value;\n//    }\n\n    function hasAccount() public view returns(bool has) {\n        if (userIds[msg.sender] == 0) {\n            return false;\n        }\n        return true;\n    }\n\n    struct PublicInfo {\n        string username;\n        uint256 creationTime;\n        string country;\n        string language;\n    }\n\n    function infos(string memory username) public view returns (PublicInfo memory info) {\n        require(userIds[usernames[username]] >0, \"username not registered\");\n        return PublicInfo(username, records[userIds[usernames[username]]].creationDate, records[userIds[usernames[username]]].country, records[userIds[usernames[username]]].language);\n    }\n\n    function myInfos() public view returns (PublicInfo memory info) {\n        require (userIds[msg.sender] > 0, \"user not registered\");\n        return PublicInfo(records[userIds[msg.sender]].username, records[userIds[msg.sender]].creationDate, records[userIds[msg.sender]].country, records[userIds[msg.sender]].language);\n    }\n\n    function register(string memory username, string memory country, string memory language, uint256  donation) public returns (uint64 id){\n        require(userIds[usernames[username]] ==0, \"username already registered\");\n        require (userIds[msg.sender] == 0, \"user key already registered\");\n        if (userIds[msg.sender] == 0) {\n            nbUsers = nbUsers+1;\n            // not registered\n            userIds[msg.sender] = nbUsers;\n            records[nbUsers].username = username;\n            records[nbUsers].creationDate = block.timestamp;\n            records[nbUsers].country = country;\n            records[nbUsers].language = language;\n        }\n        id= userIds[msg.sender];\n        return id;\n    }\n\n    function addPatches( uint64[10] calldata data) public returns (bool  ok) {\n        require(userIds[msg.sender] > 0, \"must Be registered\");\n        uint64 id =  userIds[msg.sender];\n        require(records[id].nbCalls <20, \"maximum backup exceeded - upgrade your smart contract\");\n\n        records[id].records[records[id].nbCalls] = data;\n\n        records[id].nbCalls+=1;\n        ok = true;\n        return ok;\n    }\n\n    function loadUsernamePatches(string memory username) public view returns ( uint64[10][] memory myData) {\n        require(userIds[usernames[username]] > 0, \"This UserName doesn't exist\");\n        uint64 id = userIds[usernames[username]];\n        uint64[10][] memory data = new uint64[10][](20);\n        for (uint8 i =0; i< records[id].nbCalls; i++){\n            data[i] = records[id].records[i];\n        }\n        return data;\n    }\n\n    function loadPatches() public view returns ( uint64[10][] memory myData) {\n        require(userIds[msg.sender] > 0, \"must Be registered\");\n        uint64 id =  userIds[msg.sender];\n\n        uint64[10][] memory data = new uint64[10][](20);\n        for (uint8 i =0; i< records[id].nbCalls; i++){\n            data[i] = records[id].records[i];\n        }\n        return data;\n    }\n\n}",
  "sourcePath": "/run/media/dme/data/sync/code/gr8-lib/blockchains/TRON/the-library/supertronbox/contracts/Library5.sol",
  "compiler": {
    "name": "solc",
    "version": "0.8.6+commit.0e36fba0.mod.Emscripten.clang"
  },
  "schemaVersion": "2.0.1",
  "updatedAt": "2025-03-03T10:11:31.667Z"
}