{
  "contractName": "Library4",
  "abi": [
    {
      "inputs": [],
      "stateMutability": "nonpayable",
      "type": "constructor"
    },
    {
      "inputs": [
        {
          "internalType": "uint64[10]",
          "name": "data",
          "type": "uint64[10]"
        }
      ],
      "name": "addPatches",
      "outputs": [
        {
          "internalType": "bool",
          "name": "ok",
          "type": "bool"
        }
      ],
      "stateMutability": "nonpayable",
      "type": "function"
    },
    {
      "inputs": [],
      "name": "hasAccount",
      "outputs": [
        {
          "internalType": "bool",
          "name": "has",
          "type": "bool"
        }
      ],
      "stateMutability": "view",
      "type": "function"
    },
    {
      "inputs": [
        {
          "internalType": "string",
          "name": "username",
          "type": "string"
        }
      ],
      "name": "infos",
      "outputs": [
        {
          "components": [
            {
              "internalType": "string",
              "name": "username",
              "type": "string"
            },
            {
              "internalType": "uint256",
              "name": "creationTime",
              "type": "uint256"
            },
            {
              "internalType": "string",
              "name": "country",
              "type": "string"
            },
            {
              "internalType": "string",
              "name": "language",
              "type": "string"
            }
          ],
          "internalType": "struct Library4.PublicInfo",
          "name": "info",
          "type": "tuple"
        }
      ],
      "stateMutability": "view",
      "type": "function"
    },
    {
      "inputs": [],
      "name": "loadPatches",
      "outputs": [
        {
          "internalType": "uint64[10][20]",
          "name": "myData",
          "type": "uint64[10][20]"
        }
      ],
      "stateMutability": "view",
      "type": "function"
    },
    {
      "inputs": [
        {
          "internalType": "string",
          "name": "username",
          "type": "string"
        }
      ],
      "name": "loadUsernamePatches",
      "outputs": [
        {
          "internalType": "uint64[10][20]",
          "name": "myData",
          "type": "uint64[10][20]"
        }
      ],
      "stateMutability": "view",
      "type": "function"
    },
    {
      "inputs": [],
      "name": "myInfos",
      "outputs": [
        {
          "components": [
            {
              "internalType": "string",
              "name": "username",
              "type": "string"
            },
            {
              "internalType": "uint256",
              "name": "creationTime",
              "type": "uint256"
            },
            {
              "internalType": "string",
              "name": "country",
              "type": "string"
            },
            {
              "internalType": "string",
              "name": "language",
              "type": "string"
            }
          ],
          "internalType": "struct Library4.PublicInfo",
          "name": "info",
          "type": "tuple"
        }
      ],
      "stateMutability": "view",
      "type": "function"
    },
    {
      "inputs": [],
      "name": "nbUsers",
      "outputs": [
        {
          "internalType": "uint64",
          "name": "",
          "type": "uint64"
        }
      ],
      "stateMutability": "view",
      "type": "function"
    },
    {
      "inputs": [],
      "name": "owner",
      "outputs": [
        {
          "internalType": "address",
          "name": "",
          "type": "address"
        }
      ],
      "stateMutability": "view",
      "type": "function"
    },
    {
      "inputs": [
        {
          "internalType": "string",
          "name": "username",
          "type": "string"
        },
        {
          "internalType": "string",
          "name": "country",
          "type": "string"
        },
        {
          "internalType": "string",
          "name": "language",
          "type": "string"
        },
        {
          "internalType": "uint256",
          "name": "donation",
          "type": "uint256"
        }
      ],
      "name": "register",
      "outputs": [
        {
          "internalType": "uint64",
          "name": "id",
          "type": "uint64"
        }
      ],
      "stateMutability": "nonpayable",
      "type": "function"
    },
    {
      "inputs": [
        {
          "internalType": "address",
          "name": "",
          "type": "address"
        }
      ],
      "name": "userIds",
      "outputs": [
        {
          "internalType": "uint64",
          "name": "",
          "type": "uint64"
        }
      ],
      "stateMutability": "view",
      "type": "function"
    },
    {
      "inputs": [
        {
          "internalType": "string",
          "name": "",
          "type": "string"
        }
      ],
      "name": "usernames",
      "outputs": [
        {
          "internalType": "address",
          "name": "",
          "type": "address"
        }
      ],
      "stateMutability": "view",
      "type": "function"
    }
  ],
  "bytecode": "0x608060405260008060146101000a81548167ffffffffffffffff021916908367ffffffffffffffff16021790555034801561003957600080fd5b50d3801561004657600080fd5b50d2801561005357600080fd5b50336000806101000a81548173ffffffffffffffffffffffffffffffffffffffff021916908373ffffffffffffffffffffffffffffffffffffffff1602179055506124c5806100a36000396000f3fe608060405234801561001057600080fd5b50d3801561001d57600080fd5b50d2801561002a57600080fd5b50600436106100c35760003560e01c8063851bdb7d1161008b578063851bdb7d146101a65780638da5cb5b146101c45780638f76a380146101e2578063aaee301f14610200578063dd5ad20814610230578063ec582cd51461024e576100c3565b806302110d25146100c85780634081db51146100f85780635d3dff66146101285780636bb355c8146101585780637b973bd014610176575b600080fd5b6100e260048036038101906100dd9190611a6f565b61027e565b6040516100ef9190611f8f565b60405180910390f35b610112600480360381019061010d91906119cb565b6106c9565b60405161011f9190611f8f565b60405180910390f35b610142600480360381019061013d91906119f8565b6106f0565b60405161014f9190611e72565b60405180910390f35b610160610959565b60405161016d9190611f8f565b60405180910390f35b610190600480360381019061018b9190611a26565b610973565b60405161019d9190611f6d565b60405180910390f35b6101ae610dc2565b6040516101bb9190611f6d565b60405180910390f35b6101cc61121c565b6040516101d99190611e3b565b60405180910390f35b6101ea611240565b6040516101f79190611e72565b60405180910390f35b61021a60048036038101906102159190611a26565b6112b8565b6040516102279190611e3b565b60405180910390f35b610238611301565b6040516102459190611e56565b60405180910390f35b61026860048036038101906102639190611a26565b6114d9565b6040516102759190611e56565b60405180910390f35b600080600160006003886040516102959190611e24565b908152602001604051809103902060009054906101000a900473ffffffffffffffffffffffffffffffffffffffff1673ffffffffffffffffffffffffffffffffffffffff1673ffffffffffffffffffffffffffffffffffffffff16815260200190815260200160002060009054906101000a900467ffffffffffffffff1667ffffffffffffffff161461035d576040517f08c379a000000000000000000000000000000000000000000000000000000000815260040161035490611f0d565b60405180910390fd5b6000600160003373ffffffffffffffffffffffffffffffffffffffff1673ffffffffffffffffffffffffffffffffffffffff16815260200190815260200160002060009054906101000a900467ffffffffffffffff1667ffffffffffffffff16146103fd576040517f08c379a00000000000000000000000000000000000000000000000000000000081526004016103f490611ecd565b60405180910390fd5b6000600160003373ffffffffffffffffffffffffffffffffffffffff1673ffffffffffffffffffffffffffffffffffffffff16815260200190815260200160002060009054906101000a900467ffffffffffffffff1667ffffffffffffffff16141561066b576001600060149054906101000a900467ffffffffffffffff166104869190612092565b600060146101000a81548167ffffffffffffffff021916908367ffffffffffffffff160217905550600060149054906101000a900467ffffffffffffffff16600160003373ffffffffffffffffffffffffffffffffffffffff1673ffffffffffffffffffffffffffffffffffffffff16815260200190815260200160002060006101000a81548167ffffffffffffffff021916908367ffffffffffffffff16021790555084600260008060149054906101000a900467ffffffffffffffff1667ffffffffffffffff1667ffffffffffffffff168152602001908152602001600020600001908051906020019061057d92919061172f565b5042600260008060149054906101000a900467ffffffffffffffff1667ffffffffffffffff1667ffffffffffffffff1681526020019081526020016000206001018190555083600260008060149054906101000a900467ffffffffffffffff1667ffffffffffffffff1667ffffffffffffffff168152602001908152602001600020600201908051906020019061061592919061172f565b5082600260008060149054906101000a900467ffffffffffffffff1667ffffffffffffffff1667ffffffffffffffff168152602001908152602001600020600301908051906020019061066992919061172f565b505b600160003373ffffffffffffffffffffffffffffffffffffffff1673ffffffffffffffffffffffffffffffffffffffff16815260200190815260200160002060009054906101000a900467ffffffffffffffff169050949350505050565b60016020528060005260406000206000915054906101000a900467ffffffffffffffff1681565b600080600160003373ffffffffffffffffffffffffffffffffffffffff1673ffffffffffffffffffffffffffffffffffffffff16815260200190815260200160002060009054906101000a900467ffffffffffffffff1667ffffffffffffffff1611610791576040517f08c379a000000000000000000000000000000000000000000000000000000000815260040161078890611f4d565b60405180910390fd5b6000600160003373ffffffffffffffffffffffffffffffffffffffff1673ffffffffffffffffffffffffffffffffffffffff16815260200190815260200160002060009054906101000a900467ffffffffffffffff1690506014600260008367ffffffffffffffff1667ffffffffffffffff16815260200190815260200160002060400160009054906101000a900460ff1660ff1610610866576040517f08c379a000000000000000000000000000000000000000000000000000000000815260040161085d90611ead565b60405180910390fd5b82600260008367ffffffffffffffff1667ffffffffffffffff168152602001908152602001600020600401600260008467ffffffffffffffff1667ffffffffffffffff16815260200190815260200160002060400160009054906101000a900460ff1660ff16601481106108dd576108dc612294565b5b6003020190600a6108ef9291906117b5565b506001600260008367ffffffffffffffff1667ffffffffffffffff16815260200190815260200160002060400160008282829054906101000a900460ff1661093791906120d0565b92506101000a81548160ff021916908360ff1602179055506001915050919050565b600060149054906101000a900467ffffffffffffffff1681565b61097b61186e565b6000600160006003856040516109919190611e24565b908152602001604051809103902060009054906101000a900473ffffffffffffffffffffffffffffffffffffffff1673ffffffffffffffffffffffffffffffffffffffff1673ffffffffffffffffffffffffffffffffffffffff16815260200190815260200160002060009054906101000a900467ffffffffffffffff1667ffffffffffffffff1611610a59576040517f08c379a0000000000000000000000000000000000000000000000000000000008152600401610a5090611eed565b60405180910390fd5b60405180608001604052808381526020016002600060016000600388604051610a829190611e24565b908152602001604051809103902060009054906101000a900473ffffffffffffffffffffffffffffffffffffffff1673ffffffffffffffffffffffffffffffffffffffff1673ffffffffffffffffffffffffffffffffffffffff16815260200190815260200160002060009054906101000a900467ffffffffffffffff1667ffffffffffffffff1667ffffffffffffffff1681526020019081526020016000206001015481526020016002600060016000600388604051610b439190611e24565b908152602001604051809103902060009054906101000a900473ffffffffffffffffffffffffffffffffffffffff1673ffffffffffffffffffffffffffffffffffffffff1673ffffffffffffffffffffffffffffffffffffffff16815260200190815260200160002060009054906101000a900467ffffffffffffffff1667ffffffffffffffff1667ffffffffffffffff1681526020019081526020016000206002018054610bf1906121d3565b80601f0160208091040260200160405190810160405280929190818152602001828054610c1d906121d3565b8015610c6a5780601f10610c3f57610100808354040283529160200191610c6a565b820191906000526020600020905b815481529060010190602001808311610c4d57829003601f168201915b505050505081526020016002600060016000600388604051610c8c9190611e24565b908152602001604051809103902060009054906101000a900473ffffffffffffffffffffffffffffffffffffffff1673ffffffffffffffffffffffffffffffffffffffff1673ffffffffffffffffffffffffffffffffffffffff16815260200190815260200160002060009054906101000a900467ffffffffffffffff1667ffffffffffffffff1667ffffffffffffffff1681526020019081526020016000206003018054610d3a906121d3565b80601f0160208091040260200160405190810160405280929190818152602001828054610d66906121d3565b8015610db35780601f10610d8857610100808354040283529160200191610db3565b820191906000526020600020905b815481529060010190602001808311610d9657829003601f168201915b50505050508152509050919050565b610dca61186e565b6000600160003373ffffffffffffffffffffffffffffffffffffffff1673ffffffffffffffffffffffffffffffffffffffff16815260200190815260200160002060009054906101000a900467ffffffffffffffff1667ffffffffffffffff1611610e6a576040517f08c379a0000000000000000000000000000000000000000000000000000000008152600401610e6190611f2d565b60405180910390fd5b604051806080016040528060026000600160003373ffffffffffffffffffffffffffffffffffffffff1673ffffffffffffffffffffffffffffffffffffffff16815260200190815260200160002060009054906101000a900467ffffffffffffffff1667ffffffffffffffff1667ffffffffffffffff1681526020019081526020016000206000018054610efd906121d3565b80601f0160208091040260200160405190810160405280929190818152602001828054610f29906121d3565b8015610f765780601f10610f4b57610100808354040283529160200191610f76565b820191906000526020600020905b815481529060010190602001808311610f5957829003601f168201915b5050505050815260200160026000600160003373ffffffffffffffffffffffffffffffffffffffff1673ffffffffffffffffffffffffffffffffffffffff16815260200190815260200160002060009054906101000a900467ffffffffffffffff1667ffffffffffffffff1667ffffffffffffffff16815260200190815260200160002060010154815260200160026000600160003373ffffffffffffffffffffffffffffffffffffffff1673ffffffffffffffffffffffffffffffffffffffff16815260200190815260200160002060009054906101000a900467ffffffffffffffff1667ffffffffffffffff1667ffffffffffffffff168152602001908152602001600020600201805461108b906121d3565b80601f01602080910402602001604051908101604052809291908181526020018280546110b7906121d3565b80156111045780601f106110d957610100808354040283529160200191611104565b820191906000526020600020905b8154815290600101906020018083116110e757829003601f168201915b5050505050815260200160026000600160003373ffffffffffffffffffffffffffffffffffffffff1673ffffffffffffffffffffffffffffffffffffffff16815260200190815260200160002060009054906101000a900467ffffffffffffffff1667ffffffffffffffff1667ffffffffffffffff1681526020019081526020016000206003018054611196906121d3565b80601f01602080910402602001604051908101604052809291908181526020018280546111c2906121d3565b801561120f5780601f106111e45761010080835404028352916020019161120f565b820191906000526020600020905b8154815290600101906020018083116111f257829003601f168201915b5050505050815250905090565b60008054906101000a900473ffffffffffffffffffffffffffffffffffffffff1681565b600080600160003373ffffffffffffffffffffffffffffffffffffffff1673ffffffffffffffffffffffffffffffffffffffff16815260200190815260200160002060009054906101000a900467ffffffffffffffff1667ffffffffffffffff1614156112b057600090506112b5565b600190505b90565b6003818051602081018201805184825260208301602085012081835280955050505050506000915054906101000a900473ffffffffffffffffffffffffffffffffffffffff1681565b611309611896565b6000600160003373ffffffffffffffffffffffffffffffffffffffff1673ffffffffffffffffffffffffffffffffffffffff16815260200190815260200160002060009054906101000a900467ffffffffffffffff1667ffffffffffffffff16116113a9576040517f08c379a00000000000000000000000000000000000000000000000000000000081526004016113a090611f4d565b60405180910390fd5b6000600160003373ffffffffffffffffffffffffffffffffffffffff1673ffffffffffffffffffffffffffffffffffffffff16815260200190815260200160002060009054906101000a900467ffffffffffffffff169050600260008267ffffffffffffffff1667ffffffffffffffff168152602001908152602001600020600401601480602002604051908101604052809291906000905b828210156114cf57838260030201600a806020026040519081016040528092919082600a80156114bb576020028201916000905b82829054906101000a900467ffffffffffffffff1667ffffffffffffffff16815260200190600801906020826007010492830192600103820291508084116114765790505b505050505081526020019060010190611442565b5050505091505090565b6114e1611896565b6000600160006003856040516114f79190611e24565b908152602001604051809103902060009054906101000a900473ffffffffffffffffffffffffffffffffffffffff1673ffffffffffffffffffffffffffffffffffffffff1673ffffffffffffffffffffffffffffffffffffffff16815260200190815260200160002060009054906101000a900467ffffffffffffffff1667ffffffffffffffff16116115bf576040517f08c379a00000000000000000000000000000000000000000000000000000000081526004016115b690611e8d565b60405180910390fd5b6000600160006003856040516115d59190611e24565b908152602001604051809103902060009054906101000a900473ffffffffffffffffffffffffffffffffffffffff1673ffffffffffffffffffffffffffffffffffffffff1673ffffffffffffffffffffffffffffffffffffffff16815260200190815260200160002060009054906101000a900467ffffffffffffffff169050600260008267ffffffffffffffff1667ffffffffffffffff168152602001908152602001600020600401601480602002604051908101604052809291906000905b8282101561172357838260030201600a806020026040519081016040528092919082600a801561170f576020028201916000905b82829054906101000a900467ffffffffffffffff1667ffffffffffffffff16815260200190600801906020826007010492830192600103820291508084116116ca5790505b505050505081526020019060010190611696565b50505050915050919050565b82805461173b906121d3565b90600052602060002090601f01602090048101928261175d57600085556117a4565b82601f1061177657805160ff19168380011785556117a4565b828001600101855582156117a4579182015b828111156117a3578251825591602001919060010190611788565b5b5090506117b191906118c4565b5090565b82600a60030160049004810192821561185d5791602002820160005b8382111561182757833567ffffffffffffffff1683826101000a81548167ffffffffffffffff021916908367ffffffffffffffff16021790555092602001926008016020816007010492830192600103026117d1565b801561185b5782816101000a81549067ffffffffffffffff0219169055600801602081600701049283019260010302611827565b505b50905061186a91906118c4565b5090565b6040518060800160405280606081526020016000815260200160608152602001606081525090565b6040518061028001604052806014905b6118ae6118e1565b8152602001906001900390816118a65790505090565b5b808211156118dd5760008160009055506001016118c5565b5090565b604051806101400160405280600a90602082028036833780820191505090505090565b600061191761191284611fcf565b611faa565b905082815260208101848484011115611933576119326122fc565b5b61193e848285612191565b509392505050565b60008135905061195581612461565b61195e81612107565b905092915050565b6000819050826020600a0282011115611982576119816122f7565b5b92915050565b600082601f83011261199d5761199c6122f2565b5b81356119ad848260208601611904565b91505092915050565b6000813590506119c581612478565b92915050565b6000602082840312156119e1576119e0612306565b5b60006119ef84828501611946565b91505092915050565b60006101408284031215611a0f57611a0e612306565b5b6000611a1d84828501611966565b91505092915050565b600060208284031215611a3c57611a3b612306565b5b600082013567ffffffffffffffff811115611a5a57611a59612301565b5b611a6684828501611988565b91505092915050565b60008060008060808587031215611a8957611a88612306565b5b600085013567ffffffffffffffff811115611aa757611aa6612301565b5b611ab387828801611988565b945050602085013567ffffffffffffffff811115611ad457611ad3612301565b5b611ae087828801611988565b935050604085013567ffffffffffffffff811115611b0157611b00612301565b5b611b0d87828801611988565b9250506060611b1e878288016119b6565b91505092959194509250565b6000611b368383611bc1565b6101408301905092915050565b6000611b4f8383611e06565b60208301905092915050565b611b6481612107565b82525050565b611b7381612014565b611b7d818461204f565b9250611b8882612000565b8060005b83811015611bb9578151611ba08782611b2a565b9650611bab83612035565b925050600181019050611b8c565b505050505050565b611bca8161201f565b611bd4818461205a565b9250611bdf8261200a565b8060005b83811015611c10578151611bf78782611b43565b9650611c0283612042565b925050600181019050611be3565b505050505050565b611c2181612119565b82525050565b6000611c328261202a565b611c3c8185612065565b9350611c4c8185602086016121a0565b611c558161230b565b840191505092915050565b6000611c6b8261202a565b611c758185612087565b9350611c858185602086016121a0565b80840191505092915050565b6000611c9e601b83612076565b9150611ca98261231c565b602082019050919050565b6000611cc1603583612076565b9150611ccc82612345565b604082019050919050565b6000611ce4601b83612076565b9150611cef82612394565b602082019050919050565b6000611d07601783612076565b9150611d12826123bd565b602082019050919050565b6000611d2a601b83612076565b9150611d35826123e6565b602082019050919050565b6000611d4d601383612076565b9150611d588261240f565b602082019050919050565b6000611d70601283612076565b9150611d7b82612438565b602082019050919050565b60006080830160008301518482036000860152611da38282611c27565b9150506020830151611db86020860182611df7565b5060408301518482036040860152611dd08282611c27565b91505060608301518482036060860152611dea8282611c27565b9150508091505092915050565b611e0081612166565b82525050565b611e0f81612170565b82525050565b611e1e81612170565b82525050565b6000611e308284611c60565b915081905092915050565b6000602082019050611e506000830184611b5b565b92915050565b600061190082019050611e6c6000830184611b6a565b92915050565b6000602082019050611e876000830184611c18565b92915050565b60006020820190508181036000830152611ea681611c91565b9050919050565b60006020820190508181036000830152611ec681611cb4565b9050919050565b60006020820190508181036000830152611ee681611cd7565b9050919050565b60006020820190508181036000830152611f0681611cfa565b9050919050565b60006020820190508181036000830152611f2681611d1d565b9050919050565b60006020820190508181036000830152611f4681611d40565b9050919050565b60006020820190508181036000830152611f6681611d63565b9050919050565b60006020820190508181036000830152611f878184611d86565b905092915050565b6000602082019050611fa46000830184611e15565b92915050565b6000611fb4611fc5565b9050611fc08282612205565b919050565b6000604051905090565b600067ffffffffffffffff821115611fea57611fe96122c3565b5b611ff38261230b565b9050602081019050919050565b6000819050919050565b6000819050919050565b600060149050919050565b6000600a9050919050565b600081519050919050565b6000602082019050919050565b6000602082019050919050565b600081905092915050565b600081905092915050565b600082825260208201905092915050565b600082825260208201905092915050565b600081905092915050565b600061209d82612170565b91506120a883612170565b92508267ffffffffffffffff038211156120c5576120c4612236565b5b828201905092915050565b60006120db82612184565b91506120e683612184565b92508260ff038211156120fc576120fb612236565b5b828201905092915050565b600061211282612125565b9050919050565b60008115159050919050565b600073ffffffffffffffffffffffffffffffffffffffff82169050919050565b600074ffffffffffffffffffffffffffffffffffffffffff82169050919050565b6000819050919050565b600067ffffffffffffffff82169050919050565b600060ff82169050919050565b82818337600083830152505050565b60005b838110156121be5780820151818401526020810190506121a3565b838111156121cd576000848401525b50505050565b600060028204905060018216806121eb57607f821691505b602082108114156121ff576121fe612265565b5b50919050565b61220e8261230b565b810181811067ffffffffffffffff8211171561222d5761222c6122c3565b5b80604052505050565b7f4e487b7100000000000000000000000000000000000000000000000000000000600052601160045260246000fd5b7f4e487b7100000000000000000000000000000000000000000000000000000000600052602260045260246000fd5b7f4e487b7100000000000000000000000000000000000000000000000000000000600052603260045260246000fd5b7f4e487b7100000000000000000000000000000000000000000000000000000000600052604160045260246000fd5b600080fd5b600080fd5b600080fd5b600080fd5b600080fd5b6000601f19601f8301169050919050565b7f5468697320557365724e616d6520646f65736e27742065786973740000000000600082015250565b7f6d6178696d756d206261636b7570206578636565646564202d2075706772616460008201527f6520796f757220736d61727420636f6e74726163740000000000000000000000602082015250565b7f75736572206b657920616c726561647920726567697374657265640000000000600082015250565b7f757365726e616d65206e6f742072656769737465726564000000000000000000600082015250565b7f757365726e616d6520616c726561647920726567697374657265640000000000600082015250565b7f75736572206e6f74207265676973746572656400000000000000000000000000600082015250565b7f6d75737420426520726567697374657265640000000000000000000000000000600082015250565b61246a81612145565b811461247557600080fd5b50565b61248181612166565b811461248c57600080fd5b5056fea26474726f6e58221220d96f8dda7af6fecb13fa053a1f9c557d73908cb555c451b53eee7062411a77bb64736f6c63430008060033",
  "source": "// SPDX-License-Identifier: MIT pragma solidity >=0.4.22 <0.9.0;\npragma solidity ^0.8.6;\n\n\ncontract Library4  {\n    address public owner;\n    struct MyData {\n        string username;\n        uint256 creationDate;\n        string country;\n        string language;\n        uint64[10][20] records;\n        uint8 nbCalls;\n    }\n\n    uint64 public nbUsers = 0;\n\n    mapping(address => uint64) public userIds;\n    // userId => UserType\n    mapping(uint64 => MyData) private records;\n    mapping(string => address) public usernames;\n\n    constructor () {\n        owner = msg.sender;\n    }\n\n    modifier onlyOwner() {\n        require(msg.sender == owner);\n        _;\n    }\n    function isOwner() internal view returns(bool) {\n        return owner == msg.sender;\n    }\n\n//\n//    function _msgData() internal view  returns (bytes memory) {\n//        this; // silence state mutability warning without generating bytecode - see https://github.com/ethereum/solidity/issues/2691\n//        return msg.data;\n//    }\n//\n//    function _msgValue() internal view  returns (uint256 value) {\n//        return msg.value;\n//    }\n\n    function hasAccount() public view returns(bool has) {\n        if (userIds[msg.sender] == 0) {\n            return false;\n        }\n        return true;\n    }\n\n    struct PublicInfo {\n        string username;\n        uint256 creationTime;\n        string country;\n        string language;\n    }\n\n    function infos(string memory username) public view returns (PublicInfo memory info) {\n        require(userIds[usernames[username]] >0, \"username not registered\");\n        return PublicInfo(username, records[userIds[usernames[username]]].creationDate, records[userIds[usernames[username]]].country, records[userIds[usernames[username]]].language);\n    }\n\n    function myInfos() public view returns (PublicInfo memory info) {\n        require (userIds[msg.sender] > 0, \"user not registered\");\n        return PublicInfo(records[userIds[msg.sender]].username, records[userIds[msg.sender]].creationDate, records[userIds[msg.sender]].country, records[userIds[msg.sender]].language);\n    }\n\n    function register(string memory username, string memory country, string memory language, uint256  donation) public returns (uint64 id){\n        require(userIds[usernames[username]] ==0, \"username already registered\");\n        require (userIds[msg.sender] == 0, \"user key already registered\");\n        if (userIds[msg.sender] == 0) {\n            nbUsers = nbUsers+1;\n            // not registered\n            userIds[msg.sender] = nbUsers;\n            records[nbUsers].username = username;\n            records[nbUsers].creationDate = block.timestamp;\n            records[nbUsers].country = country;\n            records[nbUsers].language = language;\n        }\n        id= userIds[msg.sender];\n        return id;\n    }\n\n    function addPatches( uint64[10] calldata data) public returns (bool  ok) {\n        require(userIds[msg.sender] > 0, \"must Be registered\");\n        uint64 id =  userIds[msg.sender];\n        require(records[id].nbCalls <20, \"maximum backup exceeded - upgrade your smart contract\");\n\n        records[id].records[records[id].nbCalls] = data;\n\n        records[id].nbCalls+=1;\n        ok = true;\n        return ok;\n    }\n\n    function loadUsernamePatches(string memory username) public view returns ( uint64[10][20] memory myData) {\n        require(userIds[usernames[username]] > 0, \"This UserName doesn't exist\");\n        uint64 id = userIds[usernames[username]];\n        return records[id].records;\n    }\n\n    function loadPatches() public view returns ( uint64[10][20] memory myData) {\n        require(userIds[msg.sender] > 0, \"must Be registered\");\n        uint64 id =  userIds[msg.sender];\n        return records[id].records;\n    }\n\n}",
  "sourcePath": "/run/media/dme/data/sync/code/gr8-lib/blockchains/TRON/the-library/supertronbox/contracts/Library4.sol",
  "compiler": {
    "name": "solc",
    "version": "0.8.6+commit.0e36fba0.mod.Emscripten.clang"
  },
  "schemaVersion": "2.0.1",
  "updatedAt": "2025-03-03T09:54:25.448Z"
}