{
  "_format": "hh-sol-artifact-1",
  "contractName": "Library2",
  "sourceName": "contracts/Library2.sol",
  "abi": [
    {
      "inputs": [],
      "stateMutability": "nonpayable",
      "type": "constructor"
    },
    {
      "inputs": [
        {
          "internalType": "uint8[]",
          "name": "data",
          "type": "uint8[]"
        }
      ],
      "name": "addPatches",
      "outputs": [
        {
          "internalType": "bool",
          "name": "ok",
          "type": "bool"
        }
      ],
      "stateMutability": "nonpayable",
      "type": "function"
    },
    {
      "inputs": [],
      "name": "hasAccount",
      "outputs": [
        {
          "internalType": "bool",
          "name": "has",
          "type": "bool"
        }
      ],
      "stateMutability": "view",
      "type": "function"
    },
    {
      "inputs": [
        {
          "internalType": "string",
          "name": "username",
          "type": "string"
        }
      ],
      "name": "hasUsername",
      "outputs": [
        {
          "internalType": "bool",
          "name": "ok",
          "type": "bool"
        }
      ],
      "stateMutability": "view",
      "type": "function"
    },
    {
      "inputs": [
        {
          "internalType": "string",
          "name": "username",
          "type": "string"
        }
      ],
      "name": "infos",
      "outputs": [
        {
          "components": [
            {
              "internalType": "string",
              "name": "username",
              "type": "string"
            },
            {
              "internalType": "uint256",
              "name": "creationTime",
              "type": "uint256"
            },
            {
              "internalType": "string",
              "name": "country",
              "type": "string"
            },
            {
              "internalType": "string",
              "name": "language",
              "type": "string"
            }
          ],
          "internalType": "struct Library2.PublicInfo",
          "name": "info",
          "type": "tuple"
        }
      ],
      "stateMutability": "view",
      "type": "function"
    },
    {
      "inputs": [],
      "name": "loadPatches",
      "outputs": [
        {
          "internalType": "uint8[][]",
          "name": "myData",
          "type": "uint8[][]"
        }
      ],
      "stateMutability": "view",
      "type": "function"
    },
    {
      "inputs": [
        {
          "internalType": "string",
          "name": "username",
          "type": "string"
        }
      ],
      "name": "loadUsernamePatches",
      "outputs": [
        {
          "internalType": "uint8[][]",
          "name": "myData",
          "type": "uint8[][]"
        }
      ],
      "stateMutability": "view",
      "type": "function"
    },
    {
      "inputs": [],
      "name": "myInfos",
      "outputs": [
        {
          "components": [
            {
              "internalType": "string",
              "name": "username",
              "type": "string"
            },
            {
              "internalType": "uint256",
              "name": "creationTime",
              "type": "uint256"
            },
            {
              "internalType": "string",
              "name": "country",
              "type": "string"
            },
            {
              "internalType": "string",
              "name": "language",
              "type": "string"
            }
          ],
          "internalType": "struct Library2.PublicInfo",
          "name": "info",
          "type": "tuple"
        }
      ],
      "stateMutability": "view",
      "type": "function"
    },
    {
      "inputs": [],
      "name": "nbUsers",
      "outputs": [
        {
          "internalType": "uint32",
          "name": "",
          "type": "uint32"
        }
      ],
      "stateMutability": "view",
      "type": "function"
    },
    {
      "inputs": [],
      "name": "owner",
      "outputs": [
        {
          "internalType": "address",
          "name": "",
          "type": "address"
        }
      ],
      "stateMutability": "view",
      "type": "function"
    },
    {
      "inputs": [
        {
          "internalType": "string",
          "name": "username",
          "type": "string"
        },
        {
          "internalType": "string",
          "name": "country",
          "type": "string"
        },
        {
          "internalType": "string",
          "name": "language",
          "type": "string"
        },
        {
          "internalType": "uint256",
          "name": "donation",
          "type": "uint256"
        }
      ],
      "name": "register",
      "outputs": [
        {
          "internalType": "uint64",
          "name": "id",
          "type": "uint64"
        }
      ],
      "stateMutability": "nonpayable",
      "type": "function"
    },
    {
      "inputs": [
        {
          "internalType": "address",
          "name": "",
          "type": "address"
        }
      ],
      "name": "userIds",
      "outputs": [
        {
          "internalType": "uint32",
          "name": "",
          "type": "uint32"
        }
      ],
      "stateMutability": "view",
      "type": "function"
    },
    {
      "inputs": [
        {
          "internalType": "string",
          "name": "",
          "type": "string"
        }
      ],
      "name": "usernames",
      "outputs": [
        {
          "internalType": "address",
          "name": "",
          "type": "address"
        }
      ],
      "stateMutability": "view",
      "type": "function"
    }
  ],
  "bytecode": "0x60806040525f805463ffffffff60a01b1916905534801561001e575f80fd5b505f80546001600160a01b031916331790556113c58061003d5f395ff3fe608060405234801561000f575f80fd5b50600436106100b1575f3560e01c8063851bdb7d1161006e578063851bdb7d1461018c5780638da5cb5b146101945780638f76a380146101be578063aaee301f146101c6578063dd5ad208146101fa578063ec582cd51461020f575f80fd5b806302110d25146100b557806313e710f8146100e657806318245304146101095780634081db511461011c5780636bb355c8146101565780637b973bd01461016c575b5f80fd5b6100c86100c3366004610f1d565b610222565b60405167ffffffffffffffff90911681526020015b60405180910390f35b6100f96100f4366004610fa7565b61043b565b60405190151581526020016100dd565b6100f9610117366004610fe1565b610485565b61014161012a366004611093565b60016020525f908152604090205463ffffffff1681565b60405163ffffffff90911681526020016100dd565b5f5461014190600160a01b900463ffffffff1681565b61017f61017a366004610fa7565b61052a565b6040516100dd919061110d565b61017f610823565b5f546101a6906001600160a01b031681565b6040516001600160a01b0390911681526020016100dd565b6100f9610ad7565b6101a66101d4366004610fa7565b80516020818301810180516003825292820191909301209152546001600160a01b031681565b610202610afd565b6040516100dd9190611177565b61020261021d366004610fa7565b610c26565b5f60015f6003876040516102369190611200565b9081526040805160209281900383019020546001600160a01b0316835290820192909252015f205463ffffffff16156102b65760405162461bcd60e51b815260206004820152601b60248201527f757365726e616d6520616c72656164792072656769737465726564000000000060448201526064015b60405180910390fd5b335f9081526001602052604090205463ffffffff16156103185760405162461bcd60e51b815260206004820152601b60248201527f75736572206b657920616c72656164792072656769737465726564000000000060448201526064016102ad565b335f9081526001602052604081205463ffffffff16900361041d575f5461034d90600160a01b900463ffffffff16600161121b565b5f805463ffffffff60a01b1916600160a01b63ffffffff938416810291909117808355338352600160209081526040808520805493859004871663ffffffff1990941693909317909255835492909204909316825260029052206103b186826112cf565b505f805463ffffffff600160a01b91829004811683526002602081905260408085204260019091015584549390930490911683529120016103f285826112cf565b505f8054600160a01b900463ffffffff16815260026020526040902060030161041b84826112cf565b505b50335f9081526001602052604090205463ffffffff16949350505050565b5f8060015f6003856040516104509190611200565b9081526040805160209281900383019020546001600160a01b0316835290820192909252015f205463ffffffff161192915050565b335f9081526001602052604081205463ffffffff166104db5760405162461bcd60e51b81526020600482015260126024820152711b5d5cdd081099481c9959da5cdd195c995960721b60448201526064016102ad565b335f9081526001602081815260408084205463ffffffff1680855260028352908420600401805493840181558452928190208551610520939190910191860190610db7565b5060019392505050565b6105546040518060800160405280606081526020015f815260200160608152602001606081525090565b5f60015f6003856040516105689190611200565b9081526040805160209281900383019020546001600160a01b0316835290820192909252015f205463ffffffff16116105e35760405162461bcd60e51b815260206004820152601760248201527f757365726e616d65206e6f74207265676973746572656400000000000000000060448201526064016102ad565b604051806080016040528083815260200160025f60015f60038860405161060a9190611200565b9081526040805160209281900383019020546001600160a01b03168352828201939093529082015f9081205463ffffffff1684528382019490945291810183206001908101548552905193909101926002929190829060039061066e908a90611200565b9081526040805160209281900383019020546001600160a01b03168352828201939093529082015f9081205463ffffffff1684529083019390935201902060020180546106ba9061124b565b80601f01602080910402602001604051908101604052809291908181526020018280546106e69061124b565b80156107315780601f1061070857610100808354040283529160200191610731565b820191905f5260205f20905b81548152906001019060200180831161071457829003601f168201915b5050505050815260200160025f60015f6003886040516107519190611200565b9081526040805160209281900383019020546001600160a01b03168352828201939093529082015f9081205463ffffffff16845290830193909352019020600301805461079d9061124b565b80601f01602080910402602001604051908101604052809291908181526020018280546107c99061124b565b80156108145780601f106107eb57610100808354040283529160200191610814565b820191905f5260205f20905b8154815290600101906020018083116107f757829003601f168201915b50505050508152509050919050565b61084d6040518060800160405280606081526020015f815260200160608152602001606081525090565b335f9081526001602052604090205463ffffffff166108a45760405162461bcd60e51b81526020600482015260136024820152721d5cd95c881b9bdd081c9959da5cdd195c9959606a1b60448201526064016102ad565b60408051608081018252335f908152600160209081528382205463ffffffff168252600290529190912080548291906108dc9061124b565b80601f01602080910402602001604051908101604052809291908181526020018280546109089061124b565b80156109535780601f1061092a57610100808354040283529160200191610953565b820191905f5260205f20905b81548152906001019060200180831161093657829003601f168201915b5050509183525050335f9081526001602081815260408084205463ffffffff16808552600280845282862094850154848801529452908390529101805491909201919061099f9061124b565b80601f01602080910402602001604051908101604052809291908181526020018280546109cb9061124b565b8015610a165780601f106109ed57610100808354040283529160200191610a16565b820191905f5260205f20905b8154815290600101906020018083116109f957829003601f168201915b5050509183525050335f9081526001602090815260408083205463ffffffff168352600282529091206003018054919092019190610a539061124b565b80601f0160208091040260200160405190810160405280929190818152602001828054610a7f9061124b565b8015610aca5780601f10610aa157610100808354040283529160200191610aca565b820191905f5260205f20905b815481529060010190602001808311610aad57829003601f168201915b5050505050815250905090565b335f9081526001602052604081205463ffffffff168103610af757505f90565b50600190565b335f9081526001602052604090205460609063ffffffff16610b565760405162461bcd60e51b81526020600482015260126024820152711b5d5cdd081099481c9959da5cdd195c995960721b60448201526064016102ad565b335f9081526001602090815260408083205463ffffffff168084526002835281842060040180548351818602810186019094528084529194929390929084015b82821015610c1c575f84815260209081902083018054604080518285028101850190915281815292830182828015610c0857602002820191905f5260205f20905f905b825461010083900a900460ff16815260206001928301818104948501949093039092029101808411610bd95790505b505050505081526020019060010190610b96565b5050505091505090565b60605f60015f600385604051610c3c9190611200565b9081526040805160209281900383019020546001600160a01b0316835290820192909252015f205463ffffffff1611610cb75760405162461bcd60e51b815260206004820152601b60248201527f5468697320557365724e616d6520646f65736e2774206578697374000000000060448201526064016102ad565b5f60015f600385604051610ccb9190611200565b9081526040805160209281900383019020546001600160a01b03168352828201939093529082015f9081205463ffffffff168082526002835283822060040180548551818602810186019096528086529195509290919084015b82821015610dab575f84815260209081902083018054604080518285028101850190915281815292830182828015610d9757602002820191905f5260205f20905f905b825461010083900a900460ff16815260206001928301818104948501949093039092029101808411610d685790505b505050505081526020019060010190610d25565b50505050915050919050565b828054828255905f5260205f2090601f01602090048101928215610e48579160200282015f5b83821115610e1a57835183826101000a81548160ff021916908360ff16021790555092602001926001016020815f01049283019260010302610ddd565b8015610e465782816101000a81549060ff02191690556001016020815f01049283019260010302610e1a565b505b50610e54929150610e58565b5090565b5b80821115610e54575f8155600101610e59565b634e487b7160e01b5f52604160045260245ffd5b604051601f8201601f1916810167ffffffffffffffff81118282101715610ea957610ea9610e6c565b604052919050565b5f82601f830112610ec0575f80fd5b813567ffffffffffffffff811115610eda57610eda610e6c565b610eed601f8201601f1916602001610e80565b818152846020838601011115610f01575f80fd5b816020850160208301375f918101602001919091529392505050565b5f805f8060808587031215610f30575f80fd5b843567ffffffffffffffff80821115610f47575f80fd5b610f5388838901610eb1565b95506020870135915080821115610f68575f80fd5b610f7488838901610eb1565b94506040870135915080821115610f89575f80fd5b50610f9687828801610eb1565b949793965093946060013593505050565b5f60208284031215610fb7575f80fd5b813567ffffffffffffffff811115610fcd575f80fd5b610fd984828501610eb1565b949350505050565b5f6020808385031215610ff2575f80fd5b823567ffffffffffffffff80821115611009575f80fd5b818501915085601f83011261101c575f80fd5b81358181111561102e5761102e610e6c565b8060051b915061103f848301610e80565b8181529183018401918481019088841115611058575f80fd5b938501935b83851015611087578435925060ff83168314611077575f80fd5b828252938501939085019061105d565b98975050505050505050565b5f602082840312156110a3575f80fd5b81356001600160a01b03811681146110b9575f80fd5b9392505050565b5f5b838110156110da5781810151838201526020016110c2565b50505f910152565b5f81518084526110f98160208601602086016110c0565b601f01601f19169290920160200192915050565b602081525f82516080602084015261112860a08401826110e2565b9050602084015160408401526040840151601f198085840301606086015261115083836110e2565b925060608601519150808584030160808601525061116e82826110e2565b95945050505050565b5f602080830181845280855180835260408601915060408160051b87010192508387015f5b828110156111f357878503603f190184528151805180875290870190878701905f5b818110156111dd57835160ff16835292890192918901916001016111be565b509096505050928501929085019060010161119c565b5092979650505050505050565b5f82516112118184602087016110c0565b9190910192915050565b63ffffffff81811683821601908082111561124457634e487b7160e01b5f52601160045260245ffd5b5092915050565b600181811c9082168061125f57607f821691505b60208210810361127d57634e487b7160e01b5f52602260045260245ffd5b50919050565b601f8211156112ca57805f5260205f20601f840160051c810160208510156112a85750805b601f840160051c820191505b818110156112c7575f81556001016112b4565b50505b505050565b815167ffffffffffffffff8111156112e9576112e9610e6c565b6112fd816112f7845461124b565b84611283565b602080601f831160018114611330575f84156113195750858301515b5f19600386901b1c1916600185901b178555611387565b5f85815260208120601f198616915b8281101561135e5788860151825594840194600190910190840161133f565b508582101561137b57878501515f19600388901b60f8161c191681555b505060018460011b0185555b50505050505056fea2646970667358221220305833bc64d7869ca63c2f14fc862b9d0a425c06eb8d0399951ed08c90771ba664736f6c63430008180033",
  "linkReferences": {},
  "deployedLinkReferences": {}
}