{
  "contractName": "Library6",
  "abi": [
    {
      "inputs": [],
      "stateMutability": "nonpayable",
      "type": "constructor"
    },
    {
      "inputs": [
        {
          "internalType": "uint8[]",
          "name": "patches",
          "type": "uint8[]"
        },
        {
          "internalType": "uint8[]",
          "name": "activity",
          "type": "uint8[]"
        }
      ],
      "name": "addPatches",
      "outputs": [
        {
          "internalType": "bool",
          "name": "ok",
          "type": "bool"
        }
      ],
      "stateMutability": "nonpayable",
      "type": "function"
    },
    {
      "inputs": [],
      "name": "hasAccount",
      "outputs": [
        {
          "internalType": "bool",
          "name": "has",
          "type": "bool"
        }
      ],
      "stateMutability": "view",
      "type": "function"
    },
    {
      "inputs": [
        {
          "internalType": "string",
          "name": "username",
          "type": "string"
        }
      ],
      "name": "infos",
      "outputs": [
        {
          "components": [
            {
              "internalType": "string",
              "name": "username",
              "type": "string"
            },
            {
              "internalType": "uint256",
              "name": "creationTime",
              "type": "uint256"
            },
            {
              "internalType": "string",
              "name": "country",
              "type": "string"
            },
            {
              "internalType": "string",
              "name": "language",
              "type": "string"
            }
          ],
          "internalType": "struct Library6.PublicInfo",
          "name": "info",
          "type": "tuple"
        }
      ],
      "stateMutability": "view",
      "type": "function"
    },
    {
      "inputs": [],
      "name": "loadActivity",
      "outputs": [
        {
          "internalType": "uint8[][]",
          "name": "myData",
          "type": "uint8[][]"
        }
      ],
      "stateMutability": "view",
      "type": "function"
    },
    {
      "inputs": [],
      "name": "loadPatches",
      "outputs": [
        {
          "internalType": "uint8[][]",
          "name": "myData",
          "type": "uint8[][]"
        }
      ],
      "stateMutability": "view",
      "type": "function"
    },
    {
      "inputs": [
        {
          "internalType": "string",
          "name": "username",
          "type": "string"
        }
      ],
      "name": "loadUsernamePatches",
      "outputs": [
        {
          "internalType": "uint8[][]",
          "name": "myData",
          "type": "uint8[][]"
        }
      ],
      "stateMutability": "view",
      "type": "function"
    },
    {
      "inputs": [],
      "name": "myInfos",
      "outputs": [
        {
          "components": [
            {
              "internalType": "string",
              "name": "username",
              "type": "string"
            },
            {
              "internalType": "uint256",
              "name": "creationTime",
              "type": "uint256"
            },
            {
              "internalType": "string",
              "name": "country",
              "type": "string"
            },
            {
              "internalType": "string",
              "name": "language",
              "type": "string"
            }
          ],
          "internalType": "struct Library6.PublicInfo",
          "name": "info",
          "type": "tuple"
        }
      ],
      "stateMutability": "view",
      "type": "function"
    },
    {
      "inputs": [],
      "name": "nbUsers",
      "outputs": [
        {
          "internalType": "uint32",
          "name": "",
          "type": "uint32"
        }
      ],
      "stateMutability": "view",
      "type": "function"
    },
    {
      "inputs": [],
      "name": "owner",
      "outputs": [
        {
          "internalType": "address",
          "name": "",
          "type": "address"
        }
      ],
      "stateMutability": "view",
      "type": "function"
    },
    {
      "inputs": [
        {
          "internalType": "string",
          "name": "username",
          "type": "string"
        },
        {
          "internalType": "string",
          "name": "country",
          "type": "string"
        },
        {
          "internalType": "string",
          "name": "language",
          "type": "string"
        },
        {
          "internalType": "uint256",
          "name": "donation",
          "type": "uint256"
        }
      ],
      "name": "register",
      "outputs": [
        {
          "internalType": "uint64",
          "name": "id",
          "type": "uint64"
        }
      ],
      "stateMutability": "nonpayable",
      "type": "function"
    },
    {
      "inputs": [
        {
          "internalType": "address",
          "name": "",
          "type": "address"
        }
      ],
      "name": "userIds",
      "outputs": [
        {
          "internalType": "uint32",
          "name": "",
          "type": "uint32"
        }
      ],
      "stateMutability": "view",
      "type": "function"
    },
    {
      "inputs": [
        {
          "internalType": "string",
          "name": "",
          "type": "string"
        }
      ],
      "name": "usernames",
      "outputs": [
        {
          "internalType": "address",
          "name": "",
          "type": "address"
        }
      ],
      "stateMutability": "view",
      "type": "function"
    }
  ],
  "bytecode": "0x608060405260008060146101000a81548163ffffffff021916908363ffffffff16021790555034801561003157600080fd5b50d3801561003e57600080fd5b50d2801561004b57600080fd5b50336000806101000a81548173ffffffffffffffffffffffffffffffffffffffff021916908373ffffffffffffffffffffffffffffffffffffffff1602179055506125768061009b6000396000f3fe608060405234801561001057600080fd5b50d3801561001d57600080fd5b50d2801561002a57600080fd5b50600436106100ce5760003560e01c8063851bdb7d1161008b578063851bdb7d146101cf5780638da5cb5b146101ed5780638f76a3801461020b578063aaee301f14610229578063dd5ad20814610259578063ec582cd514610277576100ce565b806302110d25146100d35780633c24649a146101035780634081db51146101335780636bb355c8146101635780637b973bd0146101815780638030952c146101b1575b600080fd5b6100ed60048036038101906100e89190611b61565b6102a7565b6040516100fa919061208e565b60405180910390f35b61011d60048036038101906101189190611aa0565b610694565b60405161012a9190611f76565b60405180910390f35b61014d60048036038101906101489190611a73565b61085a565b60405161015a9190612073565b60405180910390f35b61016b61087d565b6040516101789190612073565b60405180910390f35b61019b60048036038101906101969190611b18565b610893565b6040516101a89190612051565b60405180910390f35b6101b9610cb6565b6040516101c69190611f54565b60405180910390f35b6101d7610e88565b6040516101e49190612051565b60405180910390f35b6101f56112aa565b6040516102029190611f39565b60405180910390f35b6102136112ce565b6040516102209190611f76565b60405180910390f35b610243600480360381019061023e9190611b18565b61133e565b6040516102509190611f39565b60405180910390f35b610261611387565b60405161026e9190611f54565b60405180910390f35b610291600480360381019061028c9190611b18565b611559565b60405161029e9190611f54565b60405180910390f35b600080600160006003886040516102be9190611f22565b908152602001604051809103902060009054906101000a900473ffffffffffffffffffffffffffffffffffffffff1673ffffffffffffffffffffffffffffffffffffffff1673ffffffffffffffffffffffffffffffffffffffff16815260200190815260200160002060009054906101000a900463ffffffff1663ffffffff161461037e576040517f08c379a000000000000000000000000000000000000000000000000000000000815260040161037590611ff1565b60405180910390fd5b6000600160003373ffffffffffffffffffffffffffffffffffffffff1673ffffffffffffffffffffffffffffffffffffffff16815260200190815260200160002060009054906101000a900463ffffffff1663ffffffff1614610416576040517f08c379a000000000000000000000000000000000000000000000000000000000815260040161040d90611fb1565b60405180910390fd5b6000600160003373ffffffffffffffffffffffffffffffffffffffff1673ffffffffffffffffffffffffffffffffffffffff16815260200190815260200160002060009054906101000a900463ffffffff1663ffffffff161415610634576001600060149054906101000a900463ffffffff1661049391906121d5565b600060146101000a81548163ffffffff021916908363ffffffff160217905550600060149054906101000a900463ffffffff16600160003373ffffffffffffffffffffffffffffffffffffffff1673ffffffffffffffffffffffffffffffffffffffff16815260200190815260200160002060006101000a81548163ffffffff021916908363ffffffff16021790555084600260008060149054906101000a900463ffffffff1663ffffffff1663ffffffff168152602001908152602001600020600001908051906020019061056a9291906117a9565b5042600260008060149054906101000a900463ffffffff1663ffffffff1663ffffffff1681526020019081526020016000206001018190555083600260008060149054906101000a900463ffffffff1663ffffffff1663ffffffff16815260200190815260200160002060020190805190602001906105ea9291906117a9565b5082600260008060149054906101000a900463ffffffff1663ffffffff1663ffffffff16815260200190815260200160002060030190805190602001906106329291906117a9565b505b600160003373ffffffffffffffffffffffffffffffffffffffff1673ffffffffffffffffffffffffffffffffffffffff16815260200190815260200160002060009054906101000a900463ffffffff1663ffffffff169050949350505050565b600080600160003373ffffffffffffffffffffffffffffffffffffffff1673ffffffffffffffffffffffffffffffffffffffff16815260200190815260200160002060009054906101000a900463ffffffff1663ffffffff161161072d576040517f08c379a000000000000000000000000000000000000000000000000000000000815260040161072490612031565b60405180910390fd5b6000600160003373ffffffffffffffffffffffffffffffffffffffff1673ffffffffffffffffffffffffffffffffffffffff16815260200190815260200160002060009054906101000a900463ffffffff1690506000845111156107e857600260008263ffffffff1663ffffffff168152602001908152602001600020600401849080600181540180825580915050600190039060005260206000200160009091909190915090805190602001906107e692919061182f565b505b60008351111561084f57600260008263ffffffff1663ffffffff1681526020019081526020016000206005018390806001815401808255809150506001900390600052602060002001600090919091909150908051906020019061084d92919061182f565b505b600191505092915050565b60016020528060005260406000206000915054906101000a900463ffffffff1681565b600060149054906101000a900463ffffffff1681565b61089b6118d6565b6000600160006003856040516108b19190611f22565b908152602001604051809103902060009054906101000a900473ffffffffffffffffffffffffffffffffffffffff1673ffffffffffffffffffffffffffffffffffffffff1673ffffffffffffffffffffffffffffffffffffffff16815260200190815260200160002060009054906101000a900463ffffffff1663ffffffff1611610971576040517f08c379a000000000000000000000000000000000000000000000000000000000815260040161096890611fd1565b60405180910390fd5b6040518060800160405280838152602001600260006001600060038860405161099a9190611f22565b908152602001604051809103902060009054906101000a900473ffffffffffffffffffffffffffffffffffffffff1673ffffffffffffffffffffffffffffffffffffffff1673ffffffffffffffffffffffffffffffffffffffff16815260200190815260200160002060009054906101000a900463ffffffff1663ffffffff1663ffffffff1681526020019081526020016000206001015481526020016002600060016000600388604051610a4f9190611f22565b908152602001604051809103902060009054906101000a900473ffffffffffffffffffffffffffffffffffffffff1673ffffffffffffffffffffffffffffffffffffffff1673ffffffffffffffffffffffffffffffffffffffff16815260200190815260200160002060009054906101000a900463ffffffff1663ffffffff1663ffffffff1681526020019081526020016000206002018054610af1906122eb565b80601f0160208091040260200160405190810160405280929190818152602001828054610b1d906122eb565b8015610b6a5780601f10610b3f57610100808354040283529160200191610b6a565b820191906000526020600020905b815481529060010190602001808311610b4d57829003601f168201915b505050505081526020016002600060016000600388604051610b8c9190611f22565b908152602001604051809103902060009054906101000a900473ffffffffffffffffffffffffffffffffffffffff1673ffffffffffffffffffffffffffffffffffffffff1673ffffffffffffffffffffffffffffffffffffffff16815260200190815260200160002060009054906101000a900463ffffffff1663ffffffff1663ffffffff1681526020019081526020016000206003018054610c2e906122eb565b80601f0160208091040260200160405190810160405280929190818152602001828054610c5a906122eb565b8015610ca75780601f10610c7c57610100808354040283529160200191610ca7565b820191906000526020600020905b815481529060010190602001808311610c8a57829003601f168201915b50505050508152509050919050565b60606000600160003373ffffffffffffffffffffffffffffffffffffffff1673ffffffffffffffffffffffffffffffffffffffff16815260200190815260200160002060009054906101000a900463ffffffff1663ffffffff1611610d50576040517f08c379a0000000000000000000000000000000000000000000000000000000008152600401610d4790612031565b60405180910390fd5b6000600160003373ffffffffffffffffffffffffffffffffffffffff1673ffffffffffffffffffffffffffffffffffffffff16815260200190815260200160002060009054906101000a900463ffffffff169050600260008263ffffffff1663ffffffff168152602001908152602001600020600501805480602002602001604051908101604052809291908181526020016000905b82821015610e7e57838290600052602060002001805480602002602001604051908101604052809291908181526020018280548015610e6a57602002820191906000526020600020906000905b82829054906101000a900460ff1660ff1681526020019060010190602082600001049283019260010382029150808411610e335790505b505050505081526020019060010190610de6565b5050505091505090565b610e906118d6565b6000600160003373ffffffffffffffffffffffffffffffffffffffff1673ffffffffffffffffffffffffffffffffffffffff16815260200190815260200160002060009054906101000a900463ffffffff1663ffffffff1611610f28576040517f08c379a0000000000000000000000000000000000000000000000000000000008152600401610f1f90612011565b60405180910390fd5b604051806080016040528060026000600160003373ffffffffffffffffffffffffffffffffffffffff1673ffffffffffffffffffffffffffffffffffffffff16815260200190815260200160002060009054906101000a900463ffffffff1663ffffffff1663ffffffff1681526020019081526020016000206000018054610faf906122eb565b80601f0160208091040260200160405190810160405280929190818152602001828054610fdb906122eb565b80156110285780601f10610ffd57610100808354040283529160200191611028565b820191906000526020600020905b81548152906001019060200180831161100b57829003601f168201915b5050505050815260200160026000600160003373ffffffffffffffffffffffffffffffffffffffff1673ffffffffffffffffffffffffffffffffffffffff16815260200190815260200160002060009054906101000a900463ffffffff1663ffffffff1663ffffffff16815260200190815260200160002060010154815260200160026000600160003373ffffffffffffffffffffffffffffffffffffffff1673ffffffffffffffffffffffffffffffffffffffff16815260200190815260200160002060009054906101000a900463ffffffff1663ffffffff1663ffffffff1681526020019081526020016000206002018054611125906122eb565b80601f0160208091040260200160405190810160405280929190818152602001828054611151906122eb565b801561119e5780601f106111735761010080835404028352916020019161119e565b820191906000526020600020905b81548152906001019060200180831161118157829003601f168201915b5050505050815260200160026000600160003373ffffffffffffffffffffffffffffffffffffffff1673ffffffffffffffffffffffffffffffffffffffff16815260200190815260200160002060009054906101000a900463ffffffff1663ffffffff1663ffffffff1681526020019081526020016000206003018054611224906122eb565b80601f0160208091040260200160405190810160405280929190818152602001828054611250906122eb565b801561129d5780601f106112725761010080835404028352916020019161129d565b820191906000526020600020905b81548152906001019060200180831161128057829003601f168201915b5050505050815250905090565b60008054906101000a900473ffffffffffffffffffffffffffffffffffffffff1681565b600080600160003373ffffffffffffffffffffffffffffffffffffffff1673ffffffffffffffffffffffffffffffffffffffff16815260200190815260200160002060009054906101000a900463ffffffff1663ffffffff161415611336576000905061133b565b600190505b90565b6003818051602081018201805184825260208301602085012081835280955050505050506000915054906101000a900473ffffffffffffffffffffffffffffffffffffffff1681565b60606000600160003373ffffffffffffffffffffffffffffffffffffffff1673ffffffffffffffffffffffffffffffffffffffff16815260200190815260200160002060009054906101000a900463ffffffff1663ffffffff1611611421576040517f08c379a000000000000000000000000000000000000000000000000000000000815260040161141890612031565b60405180910390fd5b6000600160003373ffffffffffffffffffffffffffffffffffffffff1673ffffffffffffffffffffffffffffffffffffffff16815260200190815260200160002060009054906101000a900463ffffffff169050600260008263ffffffff1663ffffffff168152602001908152602001600020600401805480602002602001604051908101604052809291908181526020016000905b8282101561154f5783829060005260206000200180548060200260200160405190810160405280929190818152602001828054801561153b57602002820191906000526020600020906000905b82829054906101000a900460ff1660ff16815260200190600101906020826000010492830192600103820291508084116115045790505b5050505050815260200190600101906114b7565b5050505091505090565b60606000600160006003856040516115719190611f22565b908152602001604051809103902060009054906101000a900473ffffffffffffffffffffffffffffffffffffffff1673ffffffffffffffffffffffffffffffffffffffff1673ffffffffffffffffffffffffffffffffffffffff16815260200190815260200160002060009054906101000a900463ffffffff1663ffffffff1611611631576040517f08c379a000000000000000000000000000000000000000000000000000000000815260040161162890611f91565b60405180910390fd5b6000600160006003856040516116479190611f22565b908152602001604051809103902060009054906101000a900473ffffffffffffffffffffffffffffffffffffffff1673ffffffffffffffffffffffffffffffffffffffff1673ffffffffffffffffffffffffffffffffffffffff16815260200190815260200160002060009054906101000a900463ffffffff169050600260008263ffffffff1663ffffffff168152602001908152602001600020600401805480602002602001604051908101604052809291908181526020016000905b8282101561179d5783829060005260206000200180548060200260200160405190810160405280929190818152602001828054801561178957602002820191906000526020600020906000905b82829054906101000a900460ff1660ff16815260200190600101906020826000010492830192600103820291508084116117525790505b505050505081526020019060010190611705565b50505050915050919050565b8280546117b5906122eb565b90600052602060002090601f0160209004810192826117d7576000855561181e565b82601f106117f057805160ff191683800117855561181e565b8280016001018555821561181e579182015b8281111561181d578251825591602001919060010190611802565b5b50905061182b91906118fe565b5090565b82805482825590600052602060002090601f016020900481019282156118c55791602002820160005b8382111561189657835183826101000a81548160ff021916908360ff1602179055509260200192600101602081600001049283019260010302611858565b80156118c35782816101000a81549060ff0219169055600101602081600001049283019260010302611896565b505b5090506118d291906118fe565b5090565b6040518060800160405280606081526020016000815260200160608152602001606081525090565b5b808211156119175760008160009055506001016118ff565b5090565b600061192e611929846120ce565b6120a9565b90508083825260208201905082856020860282011115611951576119506123e0565b5b60005b8581101561198157816119678882611a5e565b845260208401935060208301925050600181019050611954565b5050509392505050565b600061199e611999846120fa565b6120a9565b9050828152602081018484840111156119ba576119b96123e5565b5b6119c58482856122a9565b509392505050565b6000813590506119dc816124fb565b6119e58161220f565b905092915050565b600082601f830112611a0257611a016123db565b5b8135611a1284826020860161191b565b91505092915050565b600082601f830112611a3057611a2f6123db565b5b8135611a4084826020860161198b565b91505092915050565b600081359050611a5881612512565b92915050565b600081359050611a6d81612529565b92915050565b600060208284031215611a8957611a886123ef565b5b6000611a97848285016119cd565b91505092915050565b60008060408385031215611ab757611ab66123ef565b5b600083013567ffffffffffffffff811115611ad557611ad46123ea565b5b611ae1858286016119ed565b925050602083013567ffffffffffffffff811115611b0257611b016123ea565b5b611b0e858286016119ed565b9150509250929050565b600060208284031215611b2e57611b2d6123ef565b5b600082013567ffffffffffffffff811115611b4c57611b4b6123ea565b5b611b5884828501611a1b565b91505092915050565b60008060008060808587031215611b7b57611b7a6123ef565b5b600085013567ffffffffffffffff811115611b9957611b986123ea565b5b611ba587828801611a1b565b945050602085013567ffffffffffffffff811115611bc657611bc56123ea565b5b611bd287828801611a1b565b935050604085013567ffffffffffffffff811115611bf357611bf26123ea565b5b611bff87828801611a1b565b9250506060611c1087828801611a49565b91505092959194509250565b6000611c288383611ccc565b905092915050565b6000611c3c8383611f13565b60208301905092915050565b611c518161220f565b82525050565b6000611c628261214b565b611c6c8185612186565b935083602082028501611c7e8561212b565b8060005b85811015611cba5784840389528151611c9b8582611c1c565b9450611ca68361216c565b925060208a01995050600181019050611c82565b50829750879550505050505092915050565b6000611cd782612156565b611ce18185612197565b9350611cec8361213b565b8060005b83811015611d1d578151611d048882611c30565b9750611d0f83612179565b925050600181019050611cf0565b5085935050505092915050565b611d3381612221565b82525050565b6000611d4482612161565b611d4e81856121a8565b9350611d5e8185602086016122b8565b611d67816123f4565b840191505092915050565b6000611d7d82612161565b611d8781856121ca565b9350611d978185602086016122b8565b80840191505092915050565b6000611db0601b836121b9565b9150611dbb82612405565b602082019050919050565b6000611dd3601b836121b9565b9150611dde8261242e565b602082019050919050565b6000611df66017836121b9565b9150611e0182612457565b602082019050919050565b6000611e19601b836121b9565b9150611e2482612480565b602082019050919050565b6000611e3c6013836121b9565b9150611e47826124a9565b602082019050919050565b6000611e5f6012836121b9565b9150611e6a826124d2565b602082019050919050565b60006080830160008301518482036000860152611e928282611d39565b9150506020830151611ea76020860182611ee6565b5060408301518482036040860152611ebf8282611d39565b91505060608301518482036060860152611ed98282611d39565b9150508091505092915050565b611eef8161226e565b82525050565b611efe81612278565b82525050565b611f0d81612288565b82525050565b611f1c8161229c565b82525050565b6000611f2e8284611d72565b915081905092915050565b6000602082019050611f4e6000830184611c48565b92915050565b60006020820190508181036000830152611f6e8184611c57565b905092915050565b6000602082019050611f8b6000830184611d2a565b92915050565b60006020820190508181036000830152611faa81611da3565b9050919050565b60006020820190508181036000830152611fca81611dc6565b9050919050565b60006020820190508181036000830152611fea81611de9565b9050919050565b6000602082019050818103600083015261200a81611e0c565b9050919050565b6000602082019050818103600083015261202a81611e2f565b9050919050565b6000602082019050818103600083015261204a81611e52565b9050919050565b6000602082019050818103600083015261206b8184611e75565b905092915050565b60006020820190506120886000830184611ef5565b92915050565b60006020820190506120a36000830184611f04565b92915050565b60006120b36120c4565b90506120bf828261231d565b919050565b6000604051905090565b600067ffffffffffffffff8211156120e9576120e86123ac565b5b602082029050602081019050919050565b600067ffffffffffffffff821115612115576121146123ac565b5b61211e826123f4565b9050602081019050919050565b6000819050602082019050919050565b6000819050602082019050919050565b600081519050919050565b600081519050919050565b600081519050919050565b6000602082019050919050565b6000602082019050919050565b600082825260208201905092915050565b600082825260208201905092915050565b600082825260208201905092915050565b600082825260208201905092915050565b600081905092915050565b60006121e082612278565b91506121eb83612278565b92508263ffffffff038211156122045761220361234e565b5b828201905092915050565b600061221a8261222d565b9050919050565b60008115159050919050565b600073ffffffffffffffffffffffffffffffffffffffff82169050919050565b600074ffffffffffffffffffffffffffffffffffffffffff82169050919050565b6000819050919050565b600063ffffffff82169050919050565b600067ffffffffffffffff82169050919050565b600060ff82169050919050565b82818337600083830152505050565b60005b838110156122d65780820151818401526020810190506122bb565b838111156122e5576000848401525b50505050565b6000600282049050600182168061230357607f821691505b602082108114156123175761231661237d565b5b50919050565b612326826123f4565b810181811067ffffffffffffffff82111715612345576123446123ac565b5b80604052505050565b7f4e487b7100000000000000000000000000000000000000000000000000000000600052601160045260246000fd5b7f4e487b7100000000000000000000000000000000000000000000000000000000600052602260045260246000fd5b7f4e487b7100000000000000000000000000000000000000000000000000000000600052604160045260246000fd5b600080fd5b600080fd5b600080fd5b600080fd5b600080fd5b6000601f19601f8301169050919050565b7f5468697320557365724e616d6520646f65736e27742065786973740000000000600082015250565b7f75736572206b657920616c726561647920726567697374657265640000000000600082015250565b7f757365726e616d65206e6f742072656769737465726564000000000000000000600082015250565b7f757365726e616d6520616c726561647920726567697374657265640000000000600082015250565b7f75736572206e6f74207265676973746572656400000000000000000000000000600082015250565b7f6d75737420426520726567697374657265640000000000000000000000000000600082015250565b6125048161224d565b811461250f57600080fd5b50565b61251b8161226e565b811461252657600080fd5b50565b6125328161229c565b811461253d57600080fd5b5056fea26474726f6e582212202d4dc9b8858f35be46170240f52d0b187c17a3f6701c85b7f7e314c93f2f960d64736f6c63430008060033",
  "source": "// SPDX-License-Identifier: MIT pragma solidity >=0.4.22 <0.9.0;\npragma solidity ^0.8.6;\n\n\ncontract Library6  {\n    address public owner;\n    struct MyData {\n        string username;\n        uint256 creationDate;\n        string country;\n        string language;\n        uint8[][] records;\n        uint8[][] activity;\n    }\n\n    uint32 public nbUsers = 0;\n\n    mapping(address => uint32) public userIds;\n    // userId => UserType\n    mapping(uint32 => MyData) private records;\n    mapping(string => address) public usernames;\n\n    constructor () {\n        owner = msg.sender;\n    }\n\n    modifier onlyOwner() {\n        require(msg.sender == owner);\n        _;\n    }\n    function isOwner() internal view returns(bool) {\n        return owner == msg.sender;\n    }\n\n//\n//    function _msgData() internal view  returns (bytes memory) {\n//        this; // silence state mutability warning without generating bytecode - see https://github.com/ethereum/solidity/issues/2691\n//        return msg.data;\n//    }\n//\n//    function _msgValue() internal view  returns (uint256 value) {\n//        return msg.value;\n//    }\n\n    function hasAccount() public view returns(bool has) {\n        if (userIds[msg.sender] == 0) {\n            return false;\n        }\n        return true;\n    }\n\n    struct PublicInfo {\n        string username;\n        uint256 creationTime;\n        string country;\n        string language;\n    }\n\n    function infos(string memory username) public view returns (PublicInfo memory info) {\n        require(userIds[usernames[username]] >0, \"username not registered\");\n        return PublicInfo(username, records[userIds[usernames[username]]].creationDate, records[userIds[usernames[username]]].country, records[userIds[usernames[username]]].language);\n    }\n\n    function myInfos() public view returns (PublicInfo memory info) {\n        require (userIds[msg.sender] > 0, \"user not registered\");\n        return PublicInfo(records[userIds[msg.sender]].username, records[userIds[msg.sender]].creationDate, records[userIds[msg.sender]].country, records[userIds[msg.sender]].language);\n    }\n\n    function register(string memory username, string memory country, string memory language, uint256  donation) public returns (uint64 id){\n        require(userIds[usernames[username]] ==0, \"username already registered\");\n        require (userIds[msg.sender] == 0, \"user key already registered\");\n        if (userIds[msg.sender] == 0) {\n            nbUsers = nbUsers+1;\n            // not registered\n            userIds[msg.sender] = nbUsers;\n            records[nbUsers].username = username;\n            records[nbUsers].creationDate = block.timestamp;\n            records[nbUsers].country = country;\n            records[nbUsers].language = language;\n        }\n        id= userIds[msg.sender];\n        return id;\n    }\n\n    function addPatches( uint8[] memory patches, uint8[] memory activity) public returns (bool  ok) {\n        require(userIds[msg.sender] > 0, \"must Be registered\");\n        uint32 id =  userIds[msg.sender];\n        if (patches.length>0) {\n            records[id].records.push(patches);\n        }\n        if (activity.length>0) {\n            records[id].activity.push(activity);\n        }\n        ok = true;\n        return ok;\n    }\n\n    function loadUsernamePatches(string memory username) public view returns ( uint8[][] memory myData) {\n        require(userIds[usernames[username]] > 0, \"This UserName doesn't exist\");\n        uint32 id = userIds[usernames[username]];\n        return records[id].records;\n    }\n\n    function loadPatches() public view returns ( uint8[][] memory myData) {\n        require(userIds[msg.sender] > 0, \"must Be registered\");\n        uint32 id =  userIds[msg.sender];\n        return records[id].records;\n    }\n\n    function loadActivity() public view returns ( uint8[][] memory myData) {\n        require(userIds[msg.sender] > 0, \"must Be registered\");\n        uint32 id =  userIds[msg.sender];\n        return records[id].activity;\n    }\n\n}",
  "sourcePath": "/run/media/dme/data/sync/code/gr8-lib/blockchains/TRON/the-library/supertronbox/contracts/Library6.sol",
  "compiler": {
    "name": "solc",
    "version": "0.8.6+commit.0e36fba0.mod.Emscripten.clang"
  },
  "schemaVersion": "2.0.1",
  "updatedAt": "2025-03-06T02:51:43.519Z"
}