{
  "contractName": "Library3",
  "abi": [
    {
      "inputs": [],
      "stateMutability": "nonpayable",
      "type": "constructor"
    },
    {
      "inputs": [
        {
          "internalType": "uint64[]",
          "name": "data",
          "type": "uint64[]"
        }
      ],
      "name": "addPatches",
      "outputs": [
        {
          "internalType": "bool",
          "name": "ok",
          "type": "bool"
        }
      ],
      "stateMutability": "nonpayable",
      "type": "function"
    },
    {
      "inputs": [],
      "name": "hasAccount",
      "outputs": [
        {
          "internalType": "bool",
          "name": "has",
          "type": "bool"
        }
      ],
      "stateMutability": "view",
      "type": "function"
    },
    {
      "inputs": [
        {
          "internalType": "string",
          "name": "username",
          "type": "string"
        }
      ],
      "name": "infos",
      "outputs": [
        {
          "components": [
            {
              "internalType": "string",
              "name": "username",
              "type": "string"
            },
            {
              "internalType": "uint256",
              "name": "creationTime",
              "type": "uint256"
            },
            {
              "internalType": "string",
              "name": "country",
              "type": "string"
            },
            {
              "internalType": "string",
              "name": "language",
              "type": "string"
            }
          ],
          "internalType": "struct Library3.PublicInfo",
          "name": "info",
          "type": "tuple"
        }
      ],
      "stateMutability": "view",
      "type": "function"
    },
    {
      "inputs": [],
      "name": "loadPatches",
      "outputs": [
        {
          "internalType": "uint64[][]",
          "name": "myData",
          "type": "uint64[][]"
        }
      ],
      "stateMutability": "view",
      "type": "function"
    },
    {
      "inputs": [
        {
          "internalType": "string",
          "name": "username",
          "type": "string"
        }
      ],
      "name": "loadUsernamePatches",
      "outputs": [
        {
          "internalType": "uint64[][]",
          "name": "myData",
          "type": "uint64[][]"
        }
      ],
      "stateMutability": "view",
      "type": "function"
    },
    {
      "inputs": [],
      "name": "myInfos",
      "outputs": [
        {
          "components": [
            {
              "internalType": "string",
              "name": "username",
              "type": "string"
            },
            {
              "internalType": "uint256",
              "name": "creationTime",
              "type": "uint256"
            },
            {
              "internalType": "string",
              "name": "country",
              "type": "string"
            },
            {
              "internalType": "string",
              "name": "language",
              "type": "string"
            }
          ],
          "internalType": "struct Library3.PublicInfo",
          "name": "info",
          "type": "tuple"
        }
      ],
      "stateMutability": "view",
      "type": "function"
    },
    {
      "inputs": [],
      "name": "nbUsers",
      "outputs": [
        {
          "internalType": "uint64",
          "name": "",
          "type": "uint64"
        }
      ],
      "stateMutability": "view",
      "type": "function"
    },
    {
      "inputs": [],
      "name": "owner",
      "outputs": [
        {
          "internalType": "address",
          "name": "",
          "type": "address"
        }
      ],
      "stateMutability": "view",
      "type": "function"
    },
    {
      "inputs": [
        {
          "internalType": "string",
          "name": "username",
          "type": "string"
        },
        {
          "internalType": "string",
          "name": "country",
          "type": "string"
        },
        {
          "internalType": "string",
          "name": "language",
          "type": "string"
        },
        {
          "internalType": "uint256",
          "name": "donation",
          "type": "uint256"
        }
      ],
      "name": "register",
      "outputs": [
        {
          "internalType": "uint64",
          "name": "id",
          "type": "uint64"
        }
      ],
      "stateMutability": "nonpayable",
      "type": "function"
    },
    {
      "inputs": [
        {
          "internalType": "address",
          "name": "",
          "type": "address"
        }
      ],
      "name": "userIds",
      "outputs": [
        {
          "internalType": "uint64",
          "name": "",
          "type": "uint64"
        }
      ],
      "stateMutability": "view",
      "type": "function"
    },
    {
      "inputs": [
        {
          "internalType": "string",
          "name": "",
          "type": "string"
        }
      ],
      "name": "usernames",
      "outputs": [
        {
          "internalType": "address",
          "name": "",
          "type": "address"
        }
      ],
      "stateMutability": "view",
      "type": "function"
    }
  ],
  "bytecode": "0x608060405260008060146101000a81548167ffffffffffffffff021916908367ffffffffffffffff16021790555034801561003957600080fd5b50d3801561004657600080fd5b50d2801561005357600080fd5b50336000806101000a81548173ffffffffffffffffffffffffffffffffffffffff021916908373ffffffffffffffffffffffffffffffffffffffff1602179055506123d5806100a36000396000f3fe608060405234801561001057600080fd5b50d3801561001d57600080fd5b50d2801561002a57600080fd5b50600436106100c35760003560e01c80638da5cb5b1161008b5780638da5cb5b146101945780638f76a380146101b2578063aaee301f146101d0578063bf20f86a14610200578063dd5ad20814610230578063ec582cd51461024e576100c3565b806302110d25146100c85780634081db51146100f85780636bb355c8146101285780637b973bd014610146578063851bdb7d14610176575b600080fd5b6100e260048036038101906100dd9190611a03565b61027e565b6040516100ef9190611f06565b60405180910390f35b610112600480360381019061010d9190611944565b6106c9565b60405161011f9190611f06565b60405180910390f35b6101306106f0565b60405161013d9190611f06565b60405180910390f35b610160600480360381019061015b91906119ba565b61070a565b60405161016d9190611ee4565b60405180910390f35b61017e610b59565b60405161018b9190611ee4565b60405180910390f35b61019c610fb3565b6040516101a99190611dcc565b60405180910390f35b6101ba610fd7565b6040516101c79190611e09565b60405180910390f35b6101ea60048036038101906101e591906119ba565b61104f565b6040516101f79190611dcc565b60405180910390f35b61021a60048036038101906102159190611971565b611098565b6040516102279190611e09565b60405180910390f35b6102386111ff565b6040516102459190611de7565b60405180910390f35b610268600480360381019061026391906119ba565b6113f3565b6040516102759190611de7565b60405180910390f35b600080600160006003886040516102959190611db5565b908152602001604051809103902060009054906101000a900473ffffffffffffffffffffffffffffffffffffffff1673ffffffffffffffffffffffffffffffffffffffff1673ffffffffffffffffffffffffffffffffffffffff16815260200190815260200160002060009054906101000a900467ffffffffffffffff1667ffffffffffffffff161461035d576040517f08c379a000000000000000000000000000000000000000000000000000000000815260040161035490611e84565b60405180910390fd5b6000600160003373ffffffffffffffffffffffffffffffffffffffff1673ffffffffffffffffffffffffffffffffffffffff16815260200190815260200160002060009054906101000a900467ffffffffffffffff1667ffffffffffffffff16146103fd576040517f08c379a00000000000000000000000000000000000000000000000000000000081526004016103f490611e44565b60405180910390fd5b6000600160003373ffffffffffffffffffffffffffffffffffffffff1673ffffffffffffffffffffffffffffffffffffffff16815260200190815260200160002060009054906101000a900467ffffffffffffffff1667ffffffffffffffff16141561066b576001600060149054906101000a900467ffffffffffffffff16610486919061204d565b600060146101000a81548167ffffffffffffffff021916908367ffffffffffffffff160217905550600060149054906101000a900467ffffffffffffffff16600160003373ffffffffffffffffffffffffffffffffffffffff1673ffffffffffffffffffffffffffffffffffffffff16815260200190815260200160002060006101000a81548167ffffffffffffffff021916908367ffffffffffffffff16021790555084600260008060149054906101000a900467ffffffffffffffff1667ffffffffffffffff1667ffffffffffffffff168152602001908152602001600020600001908051906020019061057d929190611665565b5042600260008060149054906101000a900467ffffffffffffffff1667ffffffffffffffff1667ffffffffffffffff1681526020019081526020016000206001018190555083600260008060149054906101000a900467ffffffffffffffff1667ffffffffffffffff1667ffffffffffffffff1681526020019081526020016000206002019080519060200190610615929190611665565b5082600260008060149054906101000a900467ffffffffffffffff1667ffffffffffffffff1667ffffffffffffffff1681526020019081526020016000206003019080519060200190610669929190611665565b505b600160003373ffffffffffffffffffffffffffffffffffffffff1673ffffffffffffffffffffffffffffffffffffffff16815260200190815260200160002060009054906101000a900467ffffffffffffffff169050949350505050565b60016020528060005260406000206000915054906101000a900467ffffffffffffffff1681565b600060149054906101000a900467ffffffffffffffff1681565b6107126116eb565b6000600160006003856040516107289190611db5565b908152602001604051809103902060009054906101000a900473ffffffffffffffffffffffffffffffffffffffff1673ffffffffffffffffffffffffffffffffffffffff1673ffffffffffffffffffffffffffffffffffffffff16815260200190815260200160002060009054906101000a900467ffffffffffffffff1667ffffffffffffffff16116107f0576040517f08c379a00000000000000000000000000000000000000000000000000000000081526004016107e790611e64565b60405180910390fd5b604051806080016040528083815260200160026000600160006003886040516108199190611db5565b908152602001604051809103902060009054906101000a900473ffffffffffffffffffffffffffffffffffffffff1673ffffffffffffffffffffffffffffffffffffffff1673ffffffffffffffffffffffffffffffffffffffff16815260200190815260200160002060009054906101000a900467ffffffffffffffff1667ffffffffffffffff1667ffffffffffffffff16815260200190815260200160002060010154815260200160026000600160006003886040516108da9190611db5565b908152602001604051809103902060009054906101000a900473ffffffffffffffffffffffffffffffffffffffff1673ffffffffffffffffffffffffffffffffffffffff1673ffffffffffffffffffffffffffffffffffffffff16815260200190815260200160002060009054906101000a900467ffffffffffffffff1667ffffffffffffffff1667ffffffffffffffff16815260200190815260200160002060020180546109889061214a565b80601f01602080910402602001604051908101604052809291908181526020018280546109b49061214a565b8015610a015780601f106109d657610100808354040283529160200191610a01565b820191906000526020600020905b8154815290600101906020018083116109e457829003601f168201915b505050505081526020016002600060016000600388604051610a239190611db5565b908152602001604051809103902060009054906101000a900473ffffffffffffffffffffffffffffffffffffffff1673ffffffffffffffffffffffffffffffffffffffff1673ffffffffffffffffffffffffffffffffffffffff16815260200190815260200160002060009054906101000a900467ffffffffffffffff1667ffffffffffffffff1667ffffffffffffffff1681526020019081526020016000206003018054610ad19061214a565b80601f0160208091040260200160405190810160405280929190818152602001828054610afd9061214a565b8015610b4a5780601f10610b1f57610100808354040283529160200191610b4a565b820191906000526020600020905b815481529060010190602001808311610b2d57829003601f168201915b50505050508152509050919050565b610b616116eb565b6000600160003373ffffffffffffffffffffffffffffffffffffffff1673ffffffffffffffffffffffffffffffffffffffff16815260200190815260200160002060009054906101000a900467ffffffffffffffff1667ffffffffffffffff1611610c01576040517f08c379a0000000000000000000000000000000000000000000000000000000008152600401610bf890611ea4565b60405180910390fd5b604051806080016040528060026000600160003373ffffffffffffffffffffffffffffffffffffffff1673ffffffffffffffffffffffffffffffffffffffff16815260200190815260200160002060009054906101000a900467ffffffffffffffff1667ffffffffffffffff1667ffffffffffffffff1681526020019081526020016000206000018054610c949061214a565b80601f0160208091040260200160405190810160405280929190818152602001828054610cc09061214a565b8015610d0d5780601f10610ce257610100808354040283529160200191610d0d565b820191906000526020600020905b815481529060010190602001808311610cf057829003601f168201915b5050505050815260200160026000600160003373ffffffffffffffffffffffffffffffffffffffff1673ffffffffffffffffffffffffffffffffffffffff16815260200190815260200160002060009054906101000a900467ffffffffffffffff1667ffffffffffffffff1667ffffffffffffffff16815260200190815260200160002060010154815260200160026000600160003373ffffffffffffffffffffffffffffffffffffffff1673ffffffffffffffffffffffffffffffffffffffff16815260200190815260200160002060009054906101000a900467ffffffffffffffff1667ffffffffffffffff1667ffffffffffffffff1681526020019081526020016000206002018054610e229061214a565b80601f0160208091040260200160405190810160405280929190818152602001828054610e4e9061214a565b8015610e9b5780601f10610e7057610100808354040283529160200191610e9b565b820191906000526020600020905b815481529060010190602001808311610e7e57829003601f168201915b5050505050815260200160026000600160003373ffffffffffffffffffffffffffffffffffffffff1673ffffffffffffffffffffffffffffffffffffffff16815260200190815260200160002060009054906101000a900467ffffffffffffffff1667ffffffffffffffff1667ffffffffffffffff1681526020019081526020016000206003018054610f2d9061214a565b80601f0160208091040260200160405190810160405280929190818152602001828054610f599061214a565b8015610fa65780601f10610f7b57610100808354040283529160200191610fa6565b820191906000526020600020905b815481529060010190602001808311610f8957829003601f168201915b5050505050815250905090565b60008054906101000a900473ffffffffffffffffffffffffffffffffffffffff1681565b600080600160003373ffffffffffffffffffffffffffffffffffffffff1673ffffffffffffffffffffffffffffffffffffffff16815260200190815260200160002060009054906101000a900467ffffffffffffffff1667ffffffffffffffff161415611047576000905061104c565b600190505b90565b6003818051602081018201805184825260208301602085012081835280955050505050506000915054906101000a900473ffffffffffffffffffffffffffffffffffffffff1681565b600080600160003373ffffffffffffffffffffffffffffffffffffffff1673ffffffffffffffffffffffffffffffffffffffff16815260200190815260200160002060009054906101000a900467ffffffffffffffff1667ffffffffffffffff1611611139576040517f08c379a000000000000000000000000000000000000000000000000000000000815260040161113090611ec4565b60405180910390fd5b6000600160003373ffffffffffffffffffffffffffffffffffffffff1673ffffffffffffffffffffffffffffffffffffffff16815260200190815260200160002060009054906101000a900467ffffffffffffffff169050600260008267ffffffffffffffff1667ffffffffffffffff168152602001908152602001600020600401839080600181540180825580915050600190039060005260206000200160009091909190915090805190602001906111f4929190611713565b506001915050919050565b60606000600160003373ffffffffffffffffffffffffffffffffffffffff1673ffffffffffffffffffffffffffffffffffffffff16815260200190815260200160002060009054906101000a900467ffffffffffffffff1667ffffffffffffffff16116112a1576040517f08c379a000000000000000000000000000000000000000000000000000000000815260040161129890611ec4565b60405180910390fd5b6000600160003373ffffffffffffffffffffffffffffffffffffffff1673ffffffffffffffffffffffffffffffffffffffff16815260200190815260200160002060009054906101000a900467ffffffffffffffff169050600260008267ffffffffffffffff1667ffffffffffffffff168152602001908152602001600020600401805480602002602001604051908101604052809291908181526020016000905b828210156113e9578382906000526020600020018054806020026020016040519081016040528092919081815260200182805480156113d557602002820191906000526020600020906000905b82829054906101000a900467ffffffffffffffff1667ffffffffffffffff16815260200190600801906020826007010492830192600103820291508084116113905790505b505050505081526020019060010190611343565b5050505091505090565b606060006001600060038560405161140b9190611db5565b908152602001604051809103902060009054906101000a900473ffffffffffffffffffffffffffffffffffffffff1673ffffffffffffffffffffffffffffffffffffffff1673ffffffffffffffffffffffffffffffffffffffff16815260200190815260200160002060009054906101000a900467ffffffffffffffff1667ffffffffffffffff16116114d3576040517f08c379a00000000000000000000000000000000000000000000000000000000081526004016114ca90611e24565b60405180910390fd5b6000600160006003856040516114e99190611db5565b908152602001604051809103902060009054906101000a900473ffffffffffffffffffffffffffffffffffffffff1673ffffffffffffffffffffffffffffffffffffffff1673ffffffffffffffffffffffffffffffffffffffff16815260200190815260200160002060009054906101000a900467ffffffffffffffff169050600260008267ffffffffffffffff1667ffffffffffffffff168152602001908152602001600020600401805480602002602001604051908101604052809291908181526020016000905b828210156116595783829060005260206000200180548060200260200160405190810160405280929190818152602001828054801561164557602002820191906000526020600020906000905b82829054906101000a900467ffffffffffffffff1667ffffffffffffffff16815260200190600801906020826007010492830192600103820291508084116116005790505b5050505050815260200190600101906115b3565b50505050915050919050565b8280546116719061214a565b90600052602060002090601f01602090048101928261169357600085556116da565b82601f106116ac57805160ff19168380011785556116da565b828001600101855582156116da579182015b828111156116d95782518255916020019190600101906116be565b5b5090506116e791906117cf565b5090565b6040518060800160405280606081526020016000815260200160608152602001606081525090565b828054828255906000526020600020906003016004900481019282156117be5791602002820160005b8382111561178857835183826101000a81548167ffffffffffffffff021916908367ffffffffffffffff160217905550926020019260080160208160070104928301926001030261173c565b80156117bc5782816101000a81549067ffffffffffffffff0219169055600801602081600701049283019260010302611788565b505b5090506117cb91906117cf565b5090565b5b808211156117e85760008160009055506001016117d0565b5090565b60006117ff6117fa84611f46565b611f21565b905080838252602082019050828560208602820111156118225761182161223f565b5b60005b858110156118525781611838888261192f565b845260208401935060208301925050600181019050611825565b5050509392505050565b600061186f61186a84611f72565b611f21565b90508281526020810184848401111561188b5761188a612244565b5b611896848285612108565b509392505050565b6000813590506118ad8161235a565b6118b68161208b565b905092915050565b600082601f8301126118d3576118d261223a565b5b81356118e38482602086016117ec565b91505092915050565b600082601f8301126119015761190061223a565b5b813561191184826020860161185c565b91505092915050565b60008135905061192981612371565b92915050565b60008135905061193e81612388565b92915050565b60006020828403121561195a5761195961224e565b5b60006119688482850161189e565b91505092915050565b6000602082840312156119875761198661224e565b5b600082013567ffffffffffffffff8111156119a5576119a4612249565b5b6119b1848285016118be565b91505092915050565b6000602082840312156119d0576119cf61224e565b5b600082013567ffffffffffffffff8111156119ee576119ed612249565b5b6119fa848285016118ec565b91505092915050565b60008060008060808587031215611a1d57611a1c61224e565b5b600085013567ffffffffffffffff811115611a3b57611a3a612249565b5b611a47878288016118ec565b945050602085013567ffffffffffffffff811115611a6857611a67612249565b5b611a74878288016118ec565b935050604085013567ffffffffffffffff811115611a9557611a94612249565b5b611aa1878288016118ec565b9250506060611ab28782880161191a565b91505092959194509250565b6000611aca8383611b6e565b905092915050565b6000611ade8383611d97565b60208301905092915050565b611af38161208b565b82525050565b6000611b0482611fc3565b611b0e8185611ffe565b935083602082028501611b2085611fa3565b8060005b85811015611b5c5784840389528151611b3d8582611abe565b9450611b4883611fe4565b925060208a01995050600181019050611b24565b50829750879550505050505092915050565b6000611b7982611fce565b611b83818561200f565b9350611b8e83611fb3565b8060005b83811015611bbf578151611ba68882611ad2565b9750611bb183611ff1565b925050600181019050611b92565b5085935050505092915050565b611bd58161209d565b82525050565b6000611be682611fd9565b611bf08185612020565b9350611c00818560208601612117565b611c0981612253565b840191505092915050565b6000611c1f82611fd9565b611c298185612042565b9350611c39818560208601612117565b80840191505092915050565b6000611c52601b83612031565b9150611c5d82612264565b602082019050919050565b6000611c75601b83612031565b9150611c808261228d565b602082019050919050565b6000611c98601783612031565b9150611ca3826122b6565b602082019050919050565b6000611cbb601b83612031565b9150611cc6826122df565b602082019050919050565b6000611cde601383612031565b9150611ce982612308565b602082019050919050565b6000611d01601283612031565b9150611d0c82612331565b602082019050919050565b60006080830160008301518482036000860152611d348282611bdb565b9150506020830151611d496020860182611d88565b5060408301518482036040860152611d618282611bdb565b91505060608301518482036060860152611d7b8282611bdb565b9150508091505092915050565b611d91816120ea565b82525050565b611da0816120f4565b82525050565b611daf816120f4565b82525050565b6000611dc18284611c14565b915081905092915050565b6000602082019050611de16000830184611aea565b92915050565b60006020820190508181036000830152611e018184611af9565b905092915050565b6000602082019050611e1e6000830184611bcc565b92915050565b60006020820190508181036000830152611e3d81611c45565b9050919050565b60006020820190508181036000830152611e5d81611c68565b9050919050565b60006020820190508181036000830152611e7d81611c8b565b9050919050565b60006020820190508181036000830152611e9d81611cae565b9050919050565b60006020820190508181036000830152611ebd81611cd1565b9050919050565b60006020820190508181036000830152611edd81611cf4565b9050919050565b60006020820190508181036000830152611efe8184611d17565b905092915050565b6000602082019050611f1b6000830184611da6565b92915050565b6000611f2b611f3c565b9050611f37828261217c565b919050565b6000604051905090565b600067ffffffffffffffff821115611f6157611f6061220b565b5b602082029050602081019050919050565b600067ffffffffffffffff821115611f8d57611f8c61220b565b5b611f9682612253565b9050602081019050919050565b6000819050602082019050919050565b6000819050602082019050919050565b600081519050919050565b600081519050919050565b600081519050919050565b6000602082019050919050565b6000602082019050919050565b600082825260208201905092915050565b600082825260208201905092915050565b600082825260208201905092915050565b600082825260208201905092915050565b600081905092915050565b6000612058826120f4565b9150612063836120f4565b92508267ffffffffffffffff038211156120805761207f6121ad565b5b828201905092915050565b6000612096826120a9565b9050919050565b60008115159050919050565b600073ffffffffffffffffffffffffffffffffffffffff82169050919050565b600074ffffffffffffffffffffffffffffffffffffffffff82169050919050565b6000819050919050565b600067ffffffffffffffff82169050919050565b82818337600083830152505050565b60005b8381101561213557808201518184015260208101905061211a565b83811115612144576000848401525b50505050565b6000600282049050600182168061216257607f821691505b60208210811415612176576121756121dc565b5b50919050565b61218582612253565b810181811067ffffffffffffffff821117156121a4576121a361220b565b5b80604052505050565b7f4e487b7100000000000000000000000000000000000000000000000000000000600052601160045260246000fd5b7f4e487b7100000000000000000000000000000000000000000000000000000000600052602260045260246000fd5b7f4e487b7100000000000000000000000000000000000000000000000000000000600052604160045260246000fd5b600080fd5b600080fd5b600080fd5b600080fd5b600080fd5b6000601f19601f8301169050919050565b7f5468697320557365724e616d6520646f65736e27742065786973740000000000600082015250565b7f75736572206b657920616c726561647920726567697374657265640000000000600082015250565b7f757365726e616d65206e6f742072656769737465726564000000000000000000600082015250565b7f757365726e616d6520616c726561647920726567697374657265640000000000600082015250565b7f75736572206e6f74207265676973746572656400000000000000000000000000600082015250565b7f6d75737420426520726567697374657265640000000000000000000000000000600082015250565b612363816120c9565b811461236e57600080fd5b50565b61237a816120ea565b811461238557600080fd5b50565b612391816120f4565b811461239c57600080fd5b5056fea26474726f6e58221220b0024f845d9daf14718b71020b4fe8a83911e88ccfc9f23c25f59f21e3cfd83064736f6c63430008060033",
  "source": "// SPDX-License-Identifier: MIT pragma solidity >=0.4.22 <0.9.0;\npragma solidity ^0.8.6;\n\n\ncontract Library3  {\n    address public owner;\n    struct MyData {\n        string username;\n        uint256 creationDate;\n        string country;\n        string language;\n        uint64[][] records;\n    }\n\n    uint64 public nbUsers = 0;\n\n    mapping(address => uint64) public userIds;\n    // userId => UserType\n    mapping(uint64 => MyData) private records;\n    mapping(string => address) public usernames;\n\n    constructor () {\n        owner = msg.sender;\n    }\n\n    modifier onlyOwner() {\n        require(msg.sender == owner);\n        _;\n    }\n    function isOwner() internal view returns(bool) {\n        return owner == msg.sender;\n    }\n\n//\n//    function _msgData() internal view  returns (bytes memory) {\n//        this; // silence state mutability warning without generating bytecode - see https://github.com/ethereum/solidity/issues/2691\n//        return msg.data;\n//    }\n//\n//    function _msgValue() internal view  returns (uint256 value) {\n//        return msg.value;\n//    }\n\n    function hasAccount() public view returns(bool has) {\n        if (userIds[msg.sender] == 0) {\n            return false;\n        }\n        return true;\n    }\n\n    struct PublicInfo {\n        string username;\n        uint256 creationTime;\n        string country;\n        string language;\n    }\n\n    function infos(string memory username) public view returns (PublicInfo memory info) {\n        require(userIds[usernames[username]] >0, \"username not registered\");\n        return PublicInfo(username, records[userIds[usernames[username]]].creationDate, records[userIds[usernames[username]]].country, records[userIds[usernames[username]]].language);\n    }\n\n    function myInfos() public view returns (PublicInfo memory info) {\n        require (userIds[msg.sender] > 0, \"user not registered\");\n        return PublicInfo(records[userIds[msg.sender]].username, records[userIds[msg.sender]].creationDate, records[userIds[msg.sender]].country, records[userIds[msg.sender]].language);\n    }\n\n    function register(string memory username, string memory country, string memory language, uint256  donation) public returns (uint64 id){\n        require(userIds[usernames[username]] ==0, \"username already registered\");\n        require (userIds[msg.sender] == 0, \"user key already registered\");\n        if (userIds[msg.sender] == 0) {\n            nbUsers = nbUsers+1;\n            // not registered\n            userIds[msg.sender] = nbUsers;\n            records[nbUsers].username = username;\n            records[nbUsers].creationDate = block.timestamp;\n            records[nbUsers].country = country;\n            records[nbUsers].language = language;\n        }\n        id= userIds[msg.sender];\n        return id;\n    }\n\n    function addPatches( uint64[] memory data) public returns (bool  ok) {\n        require(userIds[msg.sender] > 0, \"must Be registered\");\n        uint64 id =  userIds[msg.sender];\n        records[id].records.push(data);\n        ok = true;\n        return ok;\n    }\n\n    function loadUsernamePatches(string memory username) public view returns ( uint64[][] memory myData) {\n        require(userIds[usernames[username]] > 0, \"This UserName doesn't exist\");\n        uint64 id = userIds[usernames[username]];\n        return records[id].records;\n    }\n\n    function loadPatches() public view returns ( uint64[][] memory myData) {\n        require(userIds[msg.sender] > 0, \"must Be registered\");\n        uint64 id =  userIds[msg.sender];\n        return records[id].records;\n    }\n\n}",
  "sourcePath": "/run/media/dme/data/sync/code/gr8-lib/blockchains/TRON/the-library/supertronbox/contracts/Library3.sol",
  "compiler": {
    "name": "solc",
    "version": "0.8.6+commit.0e36fba0.mod.Emscripten.clang"
  },
  "schemaVersion": "2.0.1",
  "updatedAt": "2025-03-03T02:07:11.094Z"
}