{
  "contractName": "Library",
  "abi": [
    {
      "inputs": [],
      "stateMutability": "nonpayable",
      "type": "constructor"
    },
    {
      "inputs": [
        {
          "internalType": "string",
          "name": "data",
          "type": "string"
        }
      ],
      "name": "addPatches",
      "outputs": [
        {
          "internalType": "bool",
          "name": "ok",
          "type": "bool"
        }
      ],
      "stateMutability": "nonpayable",
      "type": "function"
    },
    {
      "inputs": [],
      "name": "hasAccount",
      "outputs": [
        {
          "internalType": "bool",
          "name": "has",
          "type": "bool"
        }
      ],
      "stateMutability": "view",
      "type": "function"
    },
    {
      "inputs": [
        {
          "internalType": "string",
          "name": "username",
          "type": "string"
        }
      ],
      "name": "infos",
      "outputs": [
        {
          "components": [
            {
              "internalType": "string",
              "name": "username",
              "type": "string"
            },
            {
              "internalType": "uint256",
              "name": "creationTime",
              "type": "uint256"
            },
            {
              "internalType": "string",
              "name": "country",
              "type": "string"
            },
            {
              "internalType": "string",
              "name": "language",
              "type": "string"
            }
          ],
          "internalType": "struct Library.PublicInfo",
          "name": "info",
          "type": "tuple"
        }
      ],
      "stateMutability": "view",
      "type": "function"
    },
    {
      "inputs": [],
      "name": "loadPatches",
      "outputs": [
        {
          "internalType": "string[]",
          "name": "myData",
          "type": "string[]"
        }
      ],
      "stateMutability": "view",
      "type": "function"
    },
    {
      "inputs": [
        {
          "internalType": "string",
          "name": "username",
          "type": "string"
        }
      ],
      "name": "loadUsernamePatches",
      "outputs": [
        {
          "internalType": "string[]",
          "name": "myData",
          "type": "string[]"
        }
      ],
      "stateMutability": "view",
      "type": "function"
    },
    {
      "inputs": [],
      "name": "myInfos",
      "outputs": [
        {
          "components": [
            {
              "internalType": "string",
              "name": "username",
              "type": "string"
            },
            {
              "internalType": "uint256",
              "name": "creationTime",
              "type": "uint256"
            },
            {
              "internalType": "string",
              "name": "country",
              "type": "string"
            },
            {
              "internalType": "string",
              "name": "language",
              "type": "string"
            }
          ],
          "internalType": "struct Library.PublicInfo",
          "name": "info",
          "type": "tuple"
        }
      ],
      "stateMutability": "view",
      "type": "function"
    },
    {
      "inputs": [],
      "name": "nbUsers",
      "outputs": [
        {
          "internalType": "uint64",
          "name": "",
          "type": "uint64"
        }
      ],
      "stateMutability": "view",
      "type": "function"
    },
    {
      "inputs": [],
      "name": "owner",
      "outputs": [
        {
          "internalType": "address",
          "name": "",
          "type": "address"
        }
      ],
      "stateMutability": "view",
      "type": "function"
    },
    {
      "inputs": [
        {
          "internalType": "string",
          "name": "username",
          "type": "string"
        },
        {
          "internalType": "string",
          "name": "country",
          "type": "string"
        },
        {
          "internalType": "string",
          "name": "language",
          "type": "string"
        },
        {
          "internalType": "uint256",
          "name": "donation",
          "type": "uint256"
        }
      ],
      "name": "register",
      "outputs": [
        {
          "internalType": "uint64",
          "name": "id",
          "type": "uint64"
        }
      ],
      "stateMutability": "nonpayable",
      "type": "function"
    },
    {
      "inputs": [
        {
          "internalType": "address",
          "name": "",
          "type": "address"
        }
      ],
      "name": "userIds",
      "outputs": [
        {
          "internalType": "uint64",
          "name": "",
          "type": "uint64"
        }
      ],
      "stateMutability": "view",
      "type": "function"
    },
    {
      "inputs": [
        {
          "internalType": "string",
          "name": "",
          "type": "string"
        }
      ],
      "name": "usernames",
      "outputs": [
        {
          "internalType": "address",
          "name": "",
          "type": "address"
        }
      ],
      "stateMutability": "view",
      "type": "function"
    }
  ],
  "bytecode": "0x608060405260008060146101000a81548167ffffffffffffffff021916908367ffffffffffffffff16021790555034801561003957600080fd5b50d3801561004657600080fd5b50d2801561005357600080fd5b50336000806101000a81548173ffffffffffffffffffffffffffffffffffffffff021916908373ffffffffffffffffffffffffffffffffffffffff160217905550612123806100a36000396000f3fe608060405234801561001057600080fd5b50d3801561001d57600080fd5b50d2801561002a57600080fd5b50600436106100c35760003560e01c8063851bdb7d1161008b578063851bdb7d146101a65780638da5cb5b146101c45780638f76a380146101e2578063aaee301f14610200578063dd5ad20814610230578063ec582cd51461024e576100c3565b806302110d25146100c85780634081db51146100f85780636bb355c8146101285780637646bd30146101465780637b973bd014610176575b600080fd5b6100e260048036038101906100dd9190611857565b61027e565b6040516100ef9190611cd5565b60405180910390f35b610112600480360381019061010d91906117e1565b6106c9565b60405161011f9190611cd5565b60405180910390f35b6101306106f0565b60405161013d9190611cd5565b60405180910390f35b610160600480360381019061015b919061180e565b61070a565b60405161016d9190611bd8565b60405180910390f35b610190600480360381019061018b919061180e565b610871565b60405161019d9190611cb3565b60405180910390f35b6101ae610cc0565b6040516101bb9190611cb3565b60405180910390f35b6101cc61111a565b6040516101d99190611b9b565b60405180910390f35b6101ea61113e565b6040516101f79190611bd8565b60405180910390f35b61021a6004803603810190610215919061180e565b6111b6565b6040516102279190611b9b565b60405180910390f35b6102386111ff565b6040516102459190611bb6565b60405180910390f35b6102686004803603810190610263919061180e565b6113f9565b6040516102759190611bb6565b60405180910390f35b600080600160006003886040516102959190611b84565b908152602001604051809103902060009054906101000a900473ffffffffffffffffffffffffffffffffffffffff1673ffffffffffffffffffffffffffffffffffffffff1673ffffffffffffffffffffffffffffffffffffffff16815260200190815260200160002060009054906101000a900467ffffffffffffffff1667ffffffffffffffff161461035d576040517f08c379a000000000000000000000000000000000000000000000000000000000815260040161035490611c53565b60405180910390fd5b6000600160003373ffffffffffffffffffffffffffffffffffffffff1673ffffffffffffffffffffffffffffffffffffffff16815260200190815260200160002060009054906101000a900467ffffffffffffffff1667ffffffffffffffff16146103fd576040517f08c379a00000000000000000000000000000000000000000000000000000000081526004016103f490611c13565b60405180910390fd5b6000600160003373ffffffffffffffffffffffffffffffffffffffff1673ffffffffffffffffffffffffffffffffffffffff16815260200190815260200160002060009054906101000a900467ffffffffffffffff1667ffffffffffffffff16141561066b576001600060149054906101000a900467ffffffffffffffff166104869190611db7565b600060146101000a81548167ffffffffffffffff021916908367ffffffffffffffff160217905550600060149054906101000a900467ffffffffffffffff16600160003373ffffffffffffffffffffffffffffffffffffffff1673ffffffffffffffffffffffffffffffffffffffff16815260200190815260200160002060006101000a81548167ffffffffffffffff021916908367ffffffffffffffff16021790555084600260008060149054906101000a900467ffffffffffffffff1667ffffffffffffffff1667ffffffffffffffff168152602001908152602001600020600001908051906020019061057d929190611671565b5042600260008060149054906101000a900467ffffffffffffffff1667ffffffffffffffff1667ffffffffffffffff1681526020019081526020016000206001018190555083600260008060149054906101000a900467ffffffffffffffff1667ffffffffffffffff1667ffffffffffffffff1681526020019081526020016000206002019080519060200190610615929190611671565b5082600260008060149054906101000a900467ffffffffffffffff1667ffffffffffffffff1667ffffffffffffffff1681526020019081526020016000206003019080519060200190610669929190611671565b505b600160003373ffffffffffffffffffffffffffffffffffffffff1673ffffffffffffffffffffffffffffffffffffffff16815260200190815260200160002060009054906101000a900467ffffffffffffffff169050949350505050565b60016020528060005260406000206000915054906101000a900467ffffffffffffffff1681565b600060149054906101000a900467ffffffffffffffff1681565b600080600160003373ffffffffffffffffffffffffffffffffffffffff1673ffffffffffffffffffffffffffffffffffffffff16815260200190815260200160002060009054906101000a900467ffffffffffffffff1667ffffffffffffffff16116107ab576040517f08c379a00000000000000000000000000000000000000000000000000000000081526004016107a290611c93565b60405180910390fd5b6000600160003373ffffffffffffffffffffffffffffffffffffffff1673ffffffffffffffffffffffffffffffffffffffff16815260200190815260200160002060009054906101000a900467ffffffffffffffff169050600260008267ffffffffffffffff1667ffffffffffffffff16815260200190815260200160002060040183908060018154018082558091505060019003906000526020600020016000909190919091509080519060200190610866929190611671565b506001915050919050565b6108796116f7565b60006001600060038560405161088f9190611b84565b908152602001604051809103902060009054906101000a900473ffffffffffffffffffffffffffffffffffffffff1673ffffffffffffffffffffffffffffffffffffffff1673ffffffffffffffffffffffffffffffffffffffff16815260200190815260200160002060009054906101000a900467ffffffffffffffff1667ffffffffffffffff1611610957576040517f08c379a000000000000000000000000000000000000000000000000000000000815260040161094e90611c33565b60405180910390fd5b604051806080016040528083815260200160026000600160006003886040516109809190611b84565b908152602001604051809103902060009054906101000a900473ffffffffffffffffffffffffffffffffffffffff1673ffffffffffffffffffffffffffffffffffffffff1673ffffffffffffffffffffffffffffffffffffffff16815260200190815260200160002060009054906101000a900467ffffffffffffffff1667ffffffffffffffff1667ffffffffffffffff1681526020019081526020016000206001015481526020016002600060016000600388604051610a419190611b84565b908152602001604051809103902060009054906101000a900473ffffffffffffffffffffffffffffffffffffffff1673ffffffffffffffffffffffffffffffffffffffff1673ffffffffffffffffffffffffffffffffffffffff16815260200190815260200160002060009054906101000a900467ffffffffffffffff1667ffffffffffffffff1667ffffffffffffffff1681526020019081526020016000206002018054610aef90611eb4565b80601f0160208091040260200160405190810160405280929190818152602001828054610b1b90611eb4565b8015610b685780601f10610b3d57610100808354040283529160200191610b68565b820191906000526020600020905b815481529060010190602001808311610b4b57829003601f168201915b505050505081526020016002600060016000600388604051610b8a9190611b84565b908152602001604051809103902060009054906101000a900473ffffffffffffffffffffffffffffffffffffffff1673ffffffffffffffffffffffffffffffffffffffff1673ffffffffffffffffffffffffffffffffffffffff16815260200190815260200160002060009054906101000a900467ffffffffffffffff1667ffffffffffffffff1667ffffffffffffffff1681526020019081526020016000206003018054610c3890611eb4565b80601f0160208091040260200160405190810160405280929190818152602001828054610c6490611eb4565b8015610cb15780601f10610c8657610100808354040283529160200191610cb1565b820191906000526020600020905b815481529060010190602001808311610c9457829003601f168201915b50505050508152509050919050565b610cc86116f7565b6000600160003373ffffffffffffffffffffffffffffffffffffffff1673ffffffffffffffffffffffffffffffffffffffff16815260200190815260200160002060009054906101000a900467ffffffffffffffff1667ffffffffffffffff1611610d68576040517f08c379a0000000000000000000000000000000000000000000000000000000008152600401610d5f90611c73565b60405180910390fd5b604051806080016040528060026000600160003373ffffffffffffffffffffffffffffffffffffffff1673ffffffffffffffffffffffffffffffffffffffff16815260200190815260200160002060009054906101000a900467ffffffffffffffff1667ffffffffffffffff1667ffffffffffffffff1681526020019081526020016000206000018054610dfb90611eb4565b80601f0160208091040260200160405190810160405280929190818152602001828054610e2790611eb4565b8015610e745780601f10610e4957610100808354040283529160200191610e74565b820191906000526020600020905b815481529060010190602001808311610e5757829003601f168201915b5050505050815260200160026000600160003373ffffffffffffffffffffffffffffffffffffffff1673ffffffffffffffffffffffffffffffffffffffff16815260200190815260200160002060009054906101000a900467ffffffffffffffff1667ffffffffffffffff1667ffffffffffffffff16815260200190815260200160002060010154815260200160026000600160003373ffffffffffffffffffffffffffffffffffffffff1673ffffffffffffffffffffffffffffffffffffffff16815260200190815260200160002060009054906101000a900467ffffffffffffffff1667ffffffffffffffff1667ffffffffffffffff1681526020019081526020016000206002018054610f8990611eb4565b80601f0160208091040260200160405190810160405280929190818152602001828054610fb590611eb4565b80156110025780601f10610fd757610100808354040283529160200191611002565b820191906000526020600020905b815481529060010190602001808311610fe557829003601f168201915b5050505050815260200160026000600160003373ffffffffffffffffffffffffffffffffffffffff1673ffffffffffffffffffffffffffffffffffffffff16815260200190815260200160002060009054906101000a900467ffffffffffffffff1667ffffffffffffffff1667ffffffffffffffff168152602001908152602001600020600301805461109490611eb4565b80601f01602080910402602001604051908101604052809291908181526020018280546110c090611eb4565b801561110d5780601f106110e25761010080835404028352916020019161110d565b820191906000526020600020905b8154815290600101906020018083116110f057829003601f168201915b5050505050815250905090565b60008054906101000a900473ffffffffffffffffffffffffffffffffffffffff1681565b600080600160003373ffffffffffffffffffffffffffffffffffffffff1673ffffffffffffffffffffffffffffffffffffffff16815260200190815260200160002060009054906101000a900467ffffffffffffffff1667ffffffffffffffff1614156111ae57600090506111b3565b600190505b90565b6003818051602081018201805184825260208301602085012081835280955050505050506000915054906101000a900473ffffffffffffffffffffffffffffffffffffffff1681565b60606000600160003373ffffffffffffffffffffffffffffffffffffffff1673ffffffffffffffffffffffffffffffffffffffff16815260200190815260200160002060009054906101000a900467ffffffffffffffff1667ffffffffffffffff16116112a1576040517f08c379a000000000000000000000000000000000000000000000000000000000815260040161129890611c93565b60405180910390fd5b6000600160003373ffffffffffffffffffffffffffffffffffffffff1673ffffffffffffffffffffffffffffffffffffffff16815260200190815260200160002060009054906101000a900467ffffffffffffffff169050600260008267ffffffffffffffff1667ffffffffffffffff168152602001908152602001600020600401805480602002602001604051908101604052809291908181526020016000905b828210156113ef57838290600052602060002001805461136290611eb4565b80601f016020809104026020016040519081016040528092919081815260200182805461138e90611eb4565b80156113db5780601f106113b0576101008083540402835291602001916113db565b820191906000526020600020905b8154815290600101906020018083116113be57829003601f168201915b505050505081526020019060010190611343565b5050505091505090565b60606000600160006003856040516114119190611b84565b908152602001604051809103902060009054906101000a900473ffffffffffffffffffffffffffffffffffffffff1673ffffffffffffffffffffffffffffffffffffffff1673ffffffffffffffffffffffffffffffffffffffff16815260200190815260200160002060009054906101000a900467ffffffffffffffff1667ffffffffffffffff16116114d9576040517f08c379a00000000000000000000000000000000000000000000000000000000081526004016114d090611bf3565b60405180910390fd5b6000600160006003856040516114ef9190611b84565b908152602001604051809103902060009054906101000a900473ffffffffffffffffffffffffffffffffffffffff1673ffffffffffffffffffffffffffffffffffffffff1673ffffffffffffffffffffffffffffffffffffffff16815260200190815260200160002060009054906101000a900467ffffffffffffffff169050600260008267ffffffffffffffff1667ffffffffffffffff168152602001908152602001600020600401805480602002602001604051908101604052809291908181526020016000905b828210156116655783829060005260206000200180546115d890611eb4565b80601f016020809104026020016040519081016040528092919081815260200182805461160490611eb4565b80156116515780601f1061162657610100808354040283529160200191611651565b820191906000526020600020905b81548152906001019060200180831161163457829003601f168201915b5050505050815260200190600101906115b9565b50505050915050919050565b82805461167d90611eb4565b90600052602060002090601f01602090048101928261169f57600085556116e6565b82601f106116b857805160ff19168380011785556116e6565b828001600101855582156116e6579182015b828111156116e55782518255916020019190600101906116ca565b5b5090506116f3919061171f565b5090565b6040518060800160405280606081526020016000815260200160608152602001606081525090565b5b80821115611738576000816000905550600101611720565b5090565b600061174f61174a84611d15565b611cf0565b90508281526020810184848401111561176b5761176a611fa9565b5b611776848285611e72565b509392505050565b60008135905061178d816120bf565b61179681611df5565b905092915050565b600082601f8301126117b3576117b2611fa4565b5b81356117c384826020860161173c565b91505092915050565b6000813590506117db816120d6565b92915050565b6000602082840312156117f7576117f6611fb3565b5b60006118058482850161177e565b91505092915050565b60006020828403121561182457611823611fb3565b5b600082013567ffffffffffffffff81111561184257611841611fae565b5b61184e8482850161179e565b91505092915050565b6000806000806080858703121561187157611870611fb3565b5b600085013567ffffffffffffffff81111561188f5761188e611fae565b5b61189b8782880161179e565b945050602085013567ffffffffffffffff8111156118bc576118bb611fae565b5b6118c88782880161179e565b935050604085013567ffffffffffffffff8111156118e9576118e8611fae565b5b6118f58782880161179e565b9250506060611906878288016117cc565b91505092959194509250565b600061191e83836119b9565b905092915050565b61192f81611df5565b82525050565b600061194082611d56565b61194a8185611d79565b93508360208202850161195c85611d46565b8060005b8581101561199857848403895281516119798582611912565b945061198483611d6c565b925060208a01995050600181019050611960565b50829750879550505050505092915050565b6119b381611e07565b82525050565b60006119c482611d61565b6119ce8185611d8a565b93506119de818560208601611e81565b6119e781611fb8565b840191505092915050565b60006119fd82611d61565b611a078185611dac565b9350611a17818560208601611e81565b80840191505092915050565b6000611a30601b83611d9b565b9150611a3b82611fc9565b602082019050919050565b6000611a53601b83611d9b565b9150611a5e82611ff2565b602082019050919050565b6000611a76601783611d9b565b9150611a818261201b565b602082019050919050565b6000611a99601b83611d9b565b9150611aa482612044565b602082019050919050565b6000611abc601383611d9b565b9150611ac78261206d565b602082019050919050565b6000611adf601283611d9b565b9150611aea82612096565b602082019050919050565b60006080830160008301518482036000860152611b1282826119b9565b9150506020830151611b276020860182611b66565b5060408301518482036040860152611b3f82826119b9565b91505060608301518482036060860152611b5982826119b9565b9150508091505092915050565b611b6f81611e54565b82525050565b611b7e81611e5e565b82525050565b6000611b9082846119f2565b915081905092915050565b6000602082019050611bb06000830184611926565b92915050565b60006020820190508181036000830152611bd08184611935565b905092915050565b6000602082019050611bed60008301846119aa565b92915050565b60006020820190508181036000830152611c0c81611a23565b9050919050565b60006020820190508181036000830152611c2c81611a46565b9050919050565b60006020820190508181036000830152611c4c81611a69565b9050919050565b60006020820190508181036000830152611c6c81611a8c565b9050919050565b60006020820190508181036000830152611c8c81611aaf565b9050919050565b60006020820190508181036000830152611cac81611ad2565b9050919050565b60006020820190508181036000830152611ccd8184611af5565b905092915050565b6000602082019050611cea6000830184611b75565b92915050565b6000611cfa611d0b565b9050611d068282611ee6565b919050565b6000604051905090565b600067ffffffffffffffff821115611d3057611d2f611f75565b5b611d3982611fb8565b9050602081019050919050565b6000819050602082019050919050565b600081519050919050565b600081519050919050565b6000602082019050919050565b600082825260208201905092915050565b600082825260208201905092915050565b600082825260208201905092915050565b600081905092915050565b6000611dc282611e5e565b9150611dcd83611e5e565b92508267ffffffffffffffff03821115611dea57611de9611f17565b5b828201905092915050565b6000611e0082611e13565b9050919050565b60008115159050919050565b600073ffffffffffffffffffffffffffffffffffffffff82169050919050565b600074ffffffffffffffffffffffffffffffffffffffffff82169050919050565b6000819050919050565b600067ffffffffffffffff82169050919050565b82818337600083830152505050565b60005b83811015611e9f578082015181840152602081019050611e84565b83811115611eae576000848401525b50505050565b60006002820490506001821680611ecc57607f821691505b60208210811415611ee057611edf611f46565b5b50919050565b611eef82611fb8565b810181811067ffffffffffffffff82111715611f0e57611f0d611f75565b5b80604052505050565b7f4e487b7100000000000000000000000000000000000000000000000000000000600052601160045260246000fd5b7f4e487b7100000000000000000000000000000000000000000000000000000000600052602260045260246000fd5b7f4e487b7100000000000000000000000000000000000000000000000000000000600052604160045260246000fd5b600080fd5b600080fd5b600080fd5b600080fd5b6000601f19601f8301169050919050565b7f5468697320557365724e616d6520646f65736e27742065786973740000000000600082015250565b7f75736572206b657920616c726561647920726567697374657265640000000000600082015250565b7f757365726e616d65206e6f742072656769737465726564000000000000000000600082015250565b7f757365726e616d6520616c726561647920726567697374657265640000000000600082015250565b7f75736572206e6f74207265676973746572656400000000000000000000000000600082015250565b7f6d75737420426520726567697374657265640000000000000000000000000000600082015250565b6120c881611e33565b81146120d357600080fd5b50565b6120df81611e54565b81146120ea57600080fd5b5056fea26474726f6e5822122013f4d4db388d625595bf1dc59dd5db6e5ccdfd6a2572bf75c0eddc5472af74d764736f6c63430008060033",
  "source": "// SPDX-License-Identifier: MIT pragma solidity >=0.4.22 <0.9.0;\npragma solidity ^0.8.6;\n\n\ncontract Library  {\n    address public owner;\n    struct MyData {\n        string username;\n        uint256 creationDate;\n        string country;\n        string language;\n        string[] records;\n    }\n\n    uint64 public nbUsers = 0;\n\n    mapping(address => uint64) public userIds;\n    // userId => UserType\n    mapping(uint64 => MyData) private records;\n    mapping(string => address) public usernames;\n\n    constructor () {\n        owner = msg.sender;\n    }\n\n    modifier onlyOwner() {\n        require(msg.sender == owner);\n        _;\n    }\n    function isOwner() internal view returns(bool) {\n        return owner == msg.sender;\n    }\n\n//\n//    function _msgData() internal view  returns (bytes memory) {\n//        this; // silence state mutability warning without generating bytecode - see https://github.com/ethereum/solidity/issues/2691\n//        return msg.data;\n//    }\n//\n//    function _msgValue() internal view  returns (uint256 value) {\n//        return msg.value;\n//    }\n\n    function hasAccount() public view returns(bool has) {\n        if (userIds[msg.sender] == 0) {\n            return false;\n        }\n        return true;\n    }\n\n    struct PublicInfo {\n        string username;\n        uint256 creationTime;\n        string country;\n        string language;\n    }\n\n    function infos(string memory username) public view returns (PublicInfo memory info) {\n        require(userIds[usernames[username]] >0, \"username not registered\");\n        return PublicInfo(username, records[userIds[usernames[username]]].creationDate, records[userIds[usernames[username]]].country, records[userIds[usernames[username]]].language);\n    }\n\n    function myInfos() public view returns (PublicInfo memory info) {\n        require (userIds[msg.sender] > 0, \"user not registered\");\n        return PublicInfo(records[userIds[msg.sender]].username, records[userIds[msg.sender]].creationDate, records[userIds[msg.sender]].country, records[userIds[msg.sender]].language);\n    }\n\n    function register(string memory username, string memory country, string memory language, uint256  donation) public returns (uint64 id){\n        require(userIds[usernames[username]] ==0, \"username already registered\");\n        require (userIds[msg.sender] == 0, \"user key already registered\");\n        if (userIds[msg.sender] == 0) {\n            nbUsers = nbUsers+1;\n            // not registered\n            userIds[msg.sender] = nbUsers;\n            records[nbUsers].username = username;\n            records[nbUsers].creationDate = block.timestamp;\n            records[nbUsers].country = country;\n            records[nbUsers].language = language;\n        }\n        id= userIds[msg.sender];\n        return id;\n    }\n\n    function addPatches( string memory data) public returns (bool  ok) {\n        require(userIds[msg.sender] > 0, \"must Be registered\");\n        uint64 id =  userIds[msg.sender];\n        records[id].records.push(data);\n        ok = true;\n    }\n\n    function loadUsernamePatches(string memory username) public view returns ( string[] memory myData) {\n        require(userIds[usernames[username]] > 0, \"This UserName doesn't exist\");\n        uint64 id = userIds[usernames[username]];\n        return records[id].records;\n    }\n\n    function loadPatches() public view returns ( string[] memory myData) {\n        require(userIds[msg.sender] > 0, \"must Be registered\");\n        uint64 id =  userIds[msg.sender];\n        return records[id].records;\n    }\n\n}",
  "sourcePath": "/run/media/dme/data/sync/code/gr8-lib/blockchains/TRON/the-library/supertronbox/contracts/Library.sol",
  "compiler": {
    "name": "solc",
    "version": "0.8.6+commit.0e36fba0.mod.Emscripten.clang"
  },
  "schemaVersion": "2.0.1",
  "updatedAt": "2025-03-02T21:56:33.436Z"
}